:100000000C942A000C9447000C9447000C94470071
:100010000C9447000C9447000C9447000C94470044
:100020000C9447000C9447000C9447000C94470034
:100030000C9447000C9447000C9447000C94470024
:100040000C9447000C9447000C9447000C94470014
:100050000C94470011241FBECFE5D8E0DEBFCDBF12
:1000600012E0A0E6B0E0EEE6F2E402C005900D92E8
:10007000AC30B107D9F712E0ACE0B2E001C01D929C
:10008000AC31B107E1F70E94B81C0C9435210C94F7
:100090000000EF92FF920F931F937B018C0120E0F1
:1000A00030E040E05FE40E94490388238CF0C801FF
:1000B000B70120E030E040E05FE40E94C1010E940F
:1000C00007049B01AC01205030404040504806C01E
:1000D000C801B7010E9407049B01AC01B901CA0124
:1000E0001F910F91FF90EF900895A0E0B0E0EBE733
:1000F000F0E00C945D1EDC012B01FA019C91923022
:1001000008F439C1EB018881823008F433C194309E
:1001100069F4843009F02FC111969C91119789815F
:10012000981709F428C1A3EFB0E025C1843009F481
:1001300021C18230A9F4923009F01DC19A01AD01AC
:1001400088E0EA010990AE01E90109929E0181501F
:10015000C1F7E201898111969C918923818308C1AD
:10016000923009F407C112962D903C901397EB0141
:100170008A819B811496AD90BD90CD90DC901797AD
:10018000EC80FD800E811F819101281B390BB90184
:1001900037FF04C066277727621B730B6032710537
:1001A0000CF061C0121613066CF537014801062EDB
:1001B00004C096948794779467940A94D2F721E0C8
:1001C00030E040E050E004C0220F331F441F551FB1
:1001D0006A95D2F721503040404050402E213F21B7
:1001E00040235123211531054105510521F021E01E
:1001F00030E040E050E079018A01E628F72808293C
:1002000019293CC0232BD1F1260E371E350146019A
:10021000062E04C096948794779467940A94D2F734
:1002200021E030E040E050E004C0220F331F441FC3
:10023000551F6A95D2F721503040404050402A2146
:100240003B214C215D21211531054105510521F04E
:1002500021E030E040E050E059016A01A628B728CB
:10026000C828D9280BC0821593052CF01C01AA249C
:10027000BB24650103C0EE24FF24870111969C91E5
:10028000D20111968C91981709F445C0992339F041
:10029000A80197012A193B094C095D0906C0A6016E
:1002A00095012E193F09400B510B57FD08C01182D3
:1002B0003382228224833583468357831DC081E0A5
:1002C00081833382228288279927DC01821B930B4A
:1002D000A40BB50B84839583A683B7830DC0220F2F
:1002E000331F441F551F24833583468357838281E0
:1002F000938101979383828324813581468157813D
:10030000DA01C9010197A109B1098F5F9F4FAF4F72
:10031000BF4328F30BC0918333822282EA0CFB1C7B
:100320000C1D1D1DE482F5820683178383E0808304
:10033000248135814681578157FF1AC0C901AA27F8
:1003400097FDA095BA2F81709070A070B0705695EF
:10035000479537952795822B932BA42BB52B848318
:100360009583A683B7838281938101969383828349
:10037000DF0101C0D201CD01CDB7DEB7E2E10C94BF
:10038000791EA0E2B0E0E7ECF1E00C94691E69830D
:100390007A838B839C832D833E834F835887E9E048
:1003A000EE2EF12CEC0EFD1ECE010196B7010E943F
:1003B000F8058E010F5E1F4FCE010596B8010E9411
:1003C000F8058A8991E089278A8BC701B801AE01B7
:1003D000475E5F4F0E9475000E942305A096E6E0ED
:1003E0000C94851EA0E2B0E0E8EFF1E00C94691EE9
:1003F00069837A838B839C832D833E834F835887C5
:10040000F9E0EF2EF12CEC0EFD1ECE010196B701A6
:100410000E94F8058E010F5E1F4FCE010596B801B0
:100420000E94F805C701B801AE01475E5F4F0E9408
:1004300075000E942305A096E6E00C94851EA0E2BC
:10044000B0E0E5E2F2E00C945D1E69837A838B8371
:100450009C832D833E834F835887CE010196BE0136
:10046000675F7F4F0E94F805CE010596BE016F5E63
:100470007F4F0E94F8059985923088F089898230F3
:10048000C8F0943019F4823051F404C0843029F457
:10049000923081F483EF90E0C6C0923049F420E0BE
:1004A0009A858A89981321E02A87CE010996BBC0D4
:1004B000823049F420E09A858A89981321E02A8BBA
:1004C000CE014196B0C02D843E844F8458886D88FB
:1004D0007E888F88988CEE24FF248701AA24BB2471
:1004E000650140E050E060E070E0E0E0F0E0C10174
:1004F00081709070892BE9F0E60CF71C081D191D1E
:100500009A01AB012A0D3B1D4C1D5D1D80E090E062
:10051000A0E0B0E0E614F7040805190520F481E036
:1005200090E0A0E0B0E0BA01A901480F591F6A1F8E
:100530007B1FAA0CBB1CCC1CDD1C97FE08C081E0F5
:1005400090E0A0E0B0E0A82AB92ACA2ADB2A3196B6
:10055000E032F10549F0660C771C881C991C569412
:10056000479437942794C3CFFA85EA892B893C892D
:100570008B859C85280F391F2E5F3F4F17C0CA01FE
:1005800081709070892B61F016950795F794E79428
:1005900080E090E0A0E0B0E8E82AF92A0A2B1B2BC3
:1005A00076956795579547952F5F3F4F77FDE7CF36
:1005B0000CC0440F551F661F771F17FD4160EE0CDE
:1005C000FF1C001F111F21503040403090E05907A0
:1005D00090E0690790E4790760F32B8F3C8FDB0193
:1005E000CA018F779070A070B07080349105A1051A
:1005F000B10561F447FD0AC0E114F10401051105DC
:1006000029F0405C5F4F6F4F7F4F40781A8EFE1786
:1006100011F081E08A8F4D8F5E8F6F8F78A383E01A
:10062000898FCE0149960E942305A096E2E10C94A1
:10063000791EA8E1B0E0EFE1F3E00C94691E698354
:100640007A838B839C832D833E834F83588789E0F5
:10065000E82EF12CEC0EFD1ECE010196B7010E9492
:10066000F8058E010F5E1F4FCE010596B8010E945E
:10067000F8058985823040F08989823028F0C701E9
:10068000B8010E94700601C08FEF6896E6E00C94F6
:10069000851EA8E1B0E0EFE4F3E00C94691E6983E5
:1006A0007A838B839C832D833E834F83588789E095
:1006B000E82EF12CEC0EFD1ECE010196B7010E9432
:1006C000F8058E010F5E1F4FCE010596B8010E94FE
:1006D000F8058985823040F08989823028F0C70189
:1006E000B8010E94700601C08FEF6896E6E00C9496
:1006F000851EA8E1B0E0EFE7F3E00C94691E698382
:100700007A838B839C832D833E834F83588789E034
:10071000E82EF12CEC0EFD1ECE010196B7010E94D1
:10072000F8058E010F5E1F4FCE010596B8010E949D
:10073000F8058985823040F08989823028F0C70128
:10074000B8010E94700601C081E06896E6E00C9452
:10075000851EA8E0B0E0EFEAF3E00C94661E9B0172
:10076000AC0183E08983DA01C9018827B7FD83954D
:100770009927AA27BB27B82E211531054105510518
:1007800019F482E089833AC08823A9F0203080E000
:10079000380780E0480780E8580729F460E070E0F7
:1007A00080E09FEC30C0EE24FF248701E21AF30AB8
:1007B000040B150B02C079018A018EE1C82ED12CE1
:1007C000DC82CB82ED82FE820F831887C801B701DD
:1007D0000E94D40401971816190684F4082E04C048
:1007E000EE0CFF1C001F111F0A94D2F7ED82FE824F
:1007F0000F831887C81AD90ADC82CB82BA82CE014D
:1008000001960E9423052896E9E00C94821EACE034
:10081000B0E0EDE0F4E00C946D1E69837A838B8385
:100820009C83CE010196BE016B5F7F4F0E94F8054D
:100830008D81823061F1823050F1843021F48E81DB
:10084000882351F12EC02F81388537FD20C06E815D
:100850002F3131051CF06623F9F023C08EE190E0C2
:10086000821B930B29853A854B855C8504C0569580
:100870004795379527958A95D2F76623B1F050951D
:100880004095309521953F4F4F4F5F4F0EC020E070
:1008900030E040E050E009C02FEF3FEF4FEF5FE75F
:1008A00004C020E030E040E050E8B901CA012C96D5
:1008B000E2E00C94891EA8E0B0E0E1E6F4E00C94DC
:1008C000651E7B018C01611571058105910519F487
:1008D00082E0898360C083E089838EE1C82ED12CB9
:1008E000DC82CB82ED82FE820F831887C801B701BC
:1008F0000E94D404FC013197F7FF3BC02227332725
:100900002E1B3F0B57016801022E04C0D694C794DA
:10091000B794A7940A94D2F740E050E060E070E00A
:1009200081E090E0A0E0B0E004C0880F991FAA1F0A
:10093000BB1F2A95D2F70197A109B1098E219F21EA
:10094000A023B1230097A105B10521F041E050E0BB
:1009500060E070E04A295B296C297D294D835E8324
:100960006F8378878EE190E08E1B9F0B9C838B8337
:1009700012C0309781F00E2E04C0EE0CFF1C001F39
:10098000111F0A94D2F7ED82FE820F831887CE1AC8
:10099000DF0ADC82CB821A82CE0101960E942305F7
:1009A0002896EAE00C94811EEF92FF920F931F931A
:1009B0007B018C0180E0E81680E0F80681E0080702
:1009C00080E0180788F48FEFE816F104010511059F
:1009D00031F028F088E090E0A0E0B0E017C080E0BF
:1009E00090E0A0E0B0E012C080E0E81680E0F806F9
:1009F00080E0080781E0180728F088E190E0A0E097
:100A0000B0E004C080E190E0A0E0B0E020E230E09F
:100A100040E050E0281B390B4A0B5B0B04C01695D5
:100A20000795F794E7948A95D2F7F701E550FF4FC1
:100A30008081281B310941095109C9011F910F917A
:100A4000FF90EF900895DF92EF92FF920F931F9324
:100A5000FC01E480F58006811781D180808182309D
:100A600048F480E090E0A0E1B0E0E82AF92A0A2BFF
:100A70001B2BA5C0843009F49FC0823021F4EE24E2
:100A8000FF24870105C0E114F1040105110519F4E3
:100A9000E0E0F0E096C0628173819FEF62387907F1
:100AA0000CF05BC022E83FEF261B370B2A313105E3
:100AB0002CF020E030E040E050E02AC0B801A7016F
:100AC000022E04C076956795579547950A94D2F7FC
:100AD00081E090E0A0E0B0E004C0880F991FAA1F59
:100AE000BB1F2A95D2F70197A109B1098E219F2139
:100AF000A023B1230097A105B10521F081E090E08A
:100B0000A0E0B0E09A01AB01282B392B4A2B5B2BDC
:100B1000DA01C9018F779070A070B07080349105B0
:100B2000A105B10539F427FF09C0205C3F4F4F4FA5
:100B30005F4F04C0215C3F4F4F4F5F4FE0E0F0E05C
:100B40002030A0E03A07A0E04A07A0E45A0710F0DE
:100B5000E1E0F0E079018A0127C06038710564F5B1
:100B6000FB01E158FF4FD801C7018F779070A0704B
:100B7000B07080349105A105B10539F4E7FE0DC0D0
:100B800080E490E0A0E0B0E004C08FE390E0A0E05B
:100B9000B0E0E80EF91E0A1F1B1F17FF05C01695CF
:100BA0000795F794E794319687E016950795F794A3
:100BB000E7948A95D1F705C0EE24FF248701EFEF73
:100BC000F0E06E2F679566276795902F9F77D794F3
:100BD000DD24D7948E2F8695492F462B582F5D29DB
:100BE000B701CA011F910F91FF90EF90DF90089518
:100BF000FC01DB01408151812281622F6F7770E01F
:100C0000221F2227221F9381892F880F822B282FB2
:100C100030E0991F9927991F11969C9311972115E0
:100C20003105A9F5411551056105710511F482E001
:100C300037C082E89FEF13969C938E9312979A0188
:100C4000AB0167E0220F331F441F551F6A95D1F790
:100C500083E08C930DC0220F331F441F551F129643
:100C60008D919C911397019713969C938E93129755
:100C7000203080E0380780E0480780E4580758F3C8
:100C800014962D933D934D935C93179708952F3FA2
:100C9000310579F4411551056105710519F484E0B8
:100CA0008C93089564FF03C081E08C9312C01C9262
:100CB00010C02F57304013963C932E93129783E029
:100CC0008C9387E0440F551F661F771F8A95D1F7D5
:100CD000706414964D935D936D937C93179708956C
:100CE0001F93DC01FB019C91923008F447C0808186
:100CF000823008F443C0943051F411961C91843032
:100D000099F58181682F70E0611B71093FC08430C3
:100D100021F0923031F48230B9F18181882389F158
:100D20002DC011961C9111978230F1F08181181716
:100D3000D9F412962D913C91139782819381821759
:100D4000930794F028173907BCF014968D919D9164
:100D50000D90BC91A02D24813581468157812817A3
:100D600039074A075B0718F4112341F00AC08217BC
:100D70009307A407B50740F4112319F061E070E070
:100D800005C06FEF7FEF02C060E070E0CB011F9104
:100D90000895DF93CF9300D00F92CDB7DEB79A833B
:100DA00089836B83EEE3F0E089818083EFE3F0E0F9
:100DB00089819A81892F99278083EDE3F0E08B81E7
:100DC0008083ACE3B0E0ECE3F0E0808184608C935E
:100DD000ACE3B0E0ECE3F0E0808182608C93ECE384
:100DE000F0E08081882F90E08270907095958795D3
:100DF00081309105A1F30F900F900F90CF91DF916B
:100E00000895DF93CF9300D0CDB7DEB79A8389835F
:100E1000EEE3F0E089818083EFE3F0E089819A815D
:100E2000892F99278083ACE3B0E0ECE3F0E0808188
:100E300081608C93EDE3F0E080810F900F90CF9173
:100E4000DF910895DF93CF9300D0CDB7DEB78983CC
:100E50006A830E94051280EA0E94251289810E94FD
:100E60004C128A810E944C120E9473120F900F90B4
:100E7000CF91DF910895DF93CF9300D0CDB7DEB748
:100E80008A830E94051280EA0E9425128A810E94AC
:100E90004C120E94C81281EA0E940B130E94E812B1
:100EA00089830E94731289810F900F90CF91DF91F7
:100EB0000895DF93CF93CDB7DEB7E8970FB6F894D8
:100EC000DEBF0FBECDBF0E94E11880E690E00E9419
:100ED000131A80E090E0AAEFB4E48DAB9EABAFAB09
:100EE000B8AF6DA97EA98FA998AD20E030E04AEF98
:100EF00054E40E941F02DC01CB0189AB9AABABAB7F
:100F0000BCAB69A97AA98BA99CA920E030E040E894
:100F10005FE30E94790388232CF481E090E098AB92
:100F20008FA73FC069A97AA98BA99CA920E03FEFB0
:100F30004FE757E40E94190318164CF56DA97EA9D6
:100F40008FA998AD20E030E040E251E40E941F02FA
:100F5000DC01CB01BC01CD010E944900DC01CB01C9
:100F600098AB8FA70FC088EC90E09EA78DA78DA5AA
:100F70009EA50197F1F79EA78DA78FA598A9019728
:100F800098AB8FA78FA598A9009769F714C069A996
:100F90007AA98BA99CA90E944900DC01CB0198ABDE
:100FA0008FA78FA598A99CA78BA78BA59CA5019718
:100FB000F1F79CA78BA70E94E11810920C0281E028
:100FC00066E00E943B188DE690E00E94131A82E0D2
:100FD00064E00E943B1881E00E947A1380930D0226
:100FE00080910D028F3FB9F380E090E0A8E4B3E474
:100FF0008FA398A7A9A7BAA76FA178A589A59AA535
:1010000020E030E04AEF54E40E941F02DC01CB01F3
:101010008BA39CA3ADA3BEA36BA17CA18DA19EA11C
:1010200020E030E040E85FE30E94790388232CF45D
:1010300081E090E09AA389A33FC06BA17CA18DA120
:101040009EA120E03FEF4FE757E40E9419031816D6
:101050004CF56FA178A589A59AA520E030E040E283
:1010600051E40E941F02DC01CB01BC01CD010E94B2
:101070004900DC01CB019AA389A30FC088EC90E062
:1010800098A38F8F8F8D98A10197F1F798A38F8FD9
:1010900089A19AA101979AA389A389A19AA10097EE
:1010A00069F714C06BA17CA18DA19EA10E9449008B
:1010B000DC01CB019AA389A389A19AA19E8F8D8F70
:1010C0008D8D9E8D0197F1F79E8F8D8F80910D02F2
:1010D0000E94691990910D028CED892780930D0271
:1010E00080910C02882F90E020910D02FC01E25FBC
:1010F000FD4F208380910C028F5F80930C028091C2
:101100000C02853009F067CF81E00E947A1380934A
:101110000D0280910D028F3FB9F380E090E0A8E4CA
:10112000B3E4898F9A8FAB8FBC8F698D7A8D8B8D4D
:101130009C8D20E030E04AEF54E40E941F02DC0165
:10114000CB018D8B9E8BAF8BB88F6D897E898F89FC
:10115000988D20E030E040E85FE30E947903882327
:101160002CF481E090E09C8B8B8B3FC06D897E8955
:101170008F89988D20E03FEF4FE757E40E941903D5
:1011800018164CF5698D7A8D8B8D9C8D20E030E0A2
:1011900040E251E40E941F02DC01CB01BC01CD0101
:1011A0000E944900DC01CB019C8B8B8B0FC088EC2B
:1011B00090E09A8B898B89899A890197F1F79A8BAC
:1011C000898B8B899C8901979C8B8B8B8B899C89C4
:1011D000009769F714C06D897E898F89988D0E9468
:1011E0004900DC01CB019C8B8B8B8B899C89988B74
:1011F0008F878F8598890197F1F7988B8F878091DA
:101200000D02813409F098C00E94E11881E063E08A
:101210000E943B1810920C0285C080E090E0AAEF7B
:10122000B3E48B879C87AD87BE876B857C858D8576
:101230009E8520E030E04AEF54E40E941F02DC016A
:10124000CB018F839887A987BA876F817885898535
:101250009A8520E030E040E85FE30E94790388232C
:101260002CF481E090E09E838D833FC06F81788570
:1012700089859A8520E03FEF4FE757E40E941903E4
:1012800018164CF56B857C858D859E8520E030E0B9
:1012900040E251E40E941F02DC01CB01BC01CD0100
:1012A0000E944900DC01CB019E838D830FC088EC36
:1012B00090E09C838B838B819C810197F1F79C83C9
:1012C0008B838D819E8101979E838D838D819E81ED
:1012D000009769F714C06F81788589859A850E9487
:1012E0004900DC01CB019E838D838D819E819A8391
:1012F000898389819A810197F1F79A838983209163
:101300000C0280910C02882F90E0FC01E25FFD4FFF
:101310009081822F692F0E94220780910C028F5F9B
:1013200080930C0280910C02853008F476CF83E71D
:1013300090E00E94131A12C080910D028D3321F4A7
:101340000E94E1180E94590780910D028D3309F027
:10135000DBCE80910D02813409F0D6CEE8960FB62F
:10136000F894DEBF0FBECDBFCF91DF9108950F93EC
:101370001F93DF93CF93CDB7DEB7C454D0400FB6E1
:10138000F894DEBF0FBECDBF0E94E1181092130289
:1013900081E066E00E943B188DE690E00E94131AFF
:1013A00082E064E00E943B1881E00E947A138093FF
:1013B0000D0280910D028F3FB9F380E090E0A8E428
:1013C000B3E48DAB9EABAFABB8AF6DA97EA98FA9CF
:1013D00098AD20E030E04AEF54E40E941F02DC01A7
:1013E000CB0189AB9AABABABBCAB69A97AA98BA992
:1013F0009CA920E030E040E85FE30E947903882365
:101400002CF481E090E098AB8FA73FC069A97AA93E
:101410008BA99CA920E03FEF4FE757E40E941903F6
:1014200018164CF56DA97EA98FA998AD20E030E083
:1014300040E251E40E941F02DC01CB01BC01CD015E
:101440000E944900DC01CB0198AB8FA70FC088EC4C
:1014500090E09EA78DA78DA59EA50197F1F79EA769
:101460008DA78FA598A9019798AB8FA78FA598A94D
:10147000009769F714C069A97AA98BA99CA90E9451
:101480004900DC01CB0198AB8FA78FA598A99CA739
:101490008BA78BA59CA50197F1F79CA78BA78AE248
:1014A0000E94691980911302482F50E090910D021B
:1014B0008CED892780930D0220910D02CE01CA96F2
:1014C000FC01E40FF51F208380911302082F10E028
:1014D000809113020E943B07282FCE01CF96FC017A
:1014E000E00FF11F2083809113028F5F809313021E
:1014F00080911302853009F057CF81E00E947A1362
:1015000080930D0280910D028F3FB9F380E090E04F
:10151000A8E4B3E48FA398A7A9A7BAA76FA178A559
:1015200089A59AA520E030E04AEF54E40E941F020A
:10153000DC01CB018BA39CA3ADA3BEA36BA17CA1BB
:101540008DA19EA120E030E040E85FE30E94790396
:1015500088232CF481E090E09AA389A33FC06BA17B
:101560007CA18DA19EA120E03FEF4FE757E40E94B0
:10157000190318164CF56FA178A589A59AA520E046
:1015800030E040E251E40E941F02DC01CB01BC01CB
:10159000CD010E944900DC01CB019AA389A30FC0B1
:1015A00088EC90E098A38F8F8F8D98A10197F1F729
:1015B00098A38F8F89A19AA101979AA389A389A142
:1015C0009AA1009769F714C06BA17CA18DA19EA17F
:1015D0000E944900DC01CB019AA389A389A19AA1A9
:1015E0009E8F8D8F8D8D9E8D0197F1F79E8F8D8FA4
:1015F00080910D02813409F020C10E94E11881E040
:1016000063E00E943B189AAD8FAD981709F09BC01C
:101610008BADFE01E05CFF4F9081891709F093C00C
:101620008CADFE01EF5BFF4F9081891709F08BC0F5
:101630008DADFE01EE5BFF4F9081891709F083C0ED
:101640008EADFE01ED5BFF4F9081891709F07BC0E5
:101650008FE790E00E94131A80E090E0AAEFB3E4D5
:10166000898F9A8FAB8FBC8F698D7A8D8B8D9C8D76
:1016700020E030E04AEF54E40E941F02DC01CB017D
:101680008D8B9E8BAF8BB88F6D897E898F89988D5E
:1016900020E030E040E85FE30E94790388232CF4E7
:1016A00081E090E09C8B8B8B3FC06D897E898F8918
:1016B000988D20E03FEF4FE757E40E94190318167A
:1016C0004CF5698D7A8D8B8D9C8D20E030E040E269
:1016D00051E40E941F02DC01CB01BC01CD010E943C
:1016E0004900DC01CB019C8B8B8B0FC088EC90E018
:1016F0009A8B898B89899A890197F1F79A8B898BC3
:101700008B899C8901979C8B8B8B8B899C890097FB
:1017100069F714C06D897E898F89988D0E94490070
:10172000DC01CB019C8B8B8B8B899C89988B8F8761
:101730008F8598890197F1F7988B8F8781E025969F
:101740008FAF259788C08FE890E00E94131A80E041
:1017500090E0AAEFB3E48B879C87AD87BE876B854B
:101760007C858D859E8520E030E04AEF54E40E9420
:101770001F02DC01CB018F839887A987BA876F810D
:10178000788589859A8520E030E040E85FE30E9413
:10179000790388232CF481E090E09E838D833FC001
:1017A0006F81788589859A8520E03FEF4FE757E480
:1017B0000E94190318164CF56B857C858D859E85D6
:1017C00020E030E040E251E40E941F02DC01CB0146
:1017D000BC01CD010E944900DC01CB019E838D83B9
:1017E0000FC088EC90E09C838B838B819C81019758
:1017F000F1F79C838B838D819E8101979E838D83DE
:101800008D819E81009769F714C06F8178858985E5
:101810009A850E944900DC01CB019E838D838D81D6
:101820009E819A83898389819A810197F1F79A83AE
:10183000898325961FAE25970EC080910D028D33AA
:1018400009F05BCE0E94E1180E94B70989AF89AD0B
:1018500025968FAF259725968FAD2597CC5BDF4FCB
:101860000FB6F894DEBF0FBECDBFCF91DF911F91B1
:101870000F910895DF93CF93CDB7DEB72F970FB6B3
:10188000F894DEBF0FBECDBF85E00E943B078F8777
:101890008F8581508F8785E06F850E9422078CECB1
:1018A0006F850E9432130E94E11881E061E00E947E
:1018B0003B188DE990E00E94131A82E061E00E94DB
:1018C0003B188F85882F90E0A0E0B0E0BC01CD01EF
:1018D0000E945B04DC01CB01BC01CD010E942F1AE8
:1018E00082E063E00E943B1886EA90E00E94131AAF
:1018F00080E090E0AAEFB4E48B879C87AD87BE8739
:101900006B857C858D859E8520E030E04AEF54E430
:101910000E941F02DC01CB018F839887A987BA87B9
:101920006F81788589859A8520E030E040E85FE323
:101930000E94790388232CF481E090E09E838D83BC
:101940003FC06F81788589859A8520E03FEF4FE71A
:1019500057E40E94190318164CF56B857C858D851C
:101960009E8520E030E040E251E40E941F02DC014D
:10197000CB01BC01CD010E944900DC01CB019E835B
:101980008D830FC088EC90E09C838B838B819C813E
:101990000197F1F79C838B838D819E8101979E83B4
:1019A0008D838D819E81009769F714C06F81788542
:1019B00089859A850E944900DC01CB019E838D8335
:1019C0008D819E819A83898389819A810197F1F71C
:1019D0009A8389830E94E1182F960FB6F894DEBF90
:1019E0000FBECDBFCF91DF910895DF93CF93CDB7D9
:1019F000DEB780E090E00E948F1B0E94E11881E03A
:101A000061E00E943B1881EB90E00E94131A82E093
:101A100061E00E943B1880EC90E00E94131A8CEC6D
:101A200067E00E943213CF91DF910895DF93CF9347
:101A300000D000D00F92CDB7DEB789836A834B8385
:101A40008981282F30E03D832C838C819D818130DA
:101A5000910509F443C02C813D81223031052CF4DD
:101A60008C819D81009771F0BCC02C813D8122301A
:101A7000310509F45FC08C819D818330910509F4A3
:101A800085C0AFC08B818130A1F4AAE3B0E0EAE366
:101A9000F0E08081482F8A81282F30E081E090E0BB
:101AA000022E02C0880F991F0A94E2F7842B8C93B0
:101AB00098C0AAE3B0E0EAE3F0E08081482F8A8191
:101AC000282F30E081E090E0022E02C0880F991F9D
:101AD0000A94E2F7809584238C9383C08B818130B4
:101AE000A1F4A7E3B0E0E7E3F0E08081482F8A812A
:101AF000282F30E081E090E0022E02C0880F991F6D
:101B00000A94E2F7842B8C936CC0A7E3B0E0E7E380
:101B1000F0E08081482F8A81282F30E081E090E03A
:101B2000022E02C0880F991F0A94E2F78095842341
:101B30008C9357C08B818130A1F4A4E3B0E0E4E33F
:101B4000F0E08081482F8A81282F30E081E090E00A
:101B5000022E02C0880F991F0A94E2F7842B8C93FF
:101B600040C0A4E3B0E0E4E3F0E08081482F8A8144
:101B7000282F30E081E090E0022E02C0880F991FEC
:101B80000A94E2F7809584238C932BC08B8181305B
:101B9000A1F4A1E3B0E0E1E3F0E08081482F8A8185
:101BA000282F30E081E090E0022E02C0880F991FBC
:101BB0000A94E2F7842B8C9314C0A1E3B0E0E1E334
:101BC000F0E08081482F8A81282F30E081E090E08A
:101BD000022E02C0880F991F0A94E2F78095842391
:101BE0008C930F900F900F900F900F90CF91DF91EB
:101BF0000895DF93CF9300D000D00F92CDB7DEB71A
:101C000089836A834B838981282F30E03D832C832D
:101C10008C819D818130910509F443C02C813D81E7
:101C2000223031052CF48C819D81009771F0BCC06D
:101C30002C813D812230310509F45FC08C819D816A
:101C40008330910509F485C0AFC08B818130A1F448
:101C5000ABE3B0E0EBE3F0E08081482F8A81282FEE
:101C600030E081E090E0022E02C0880F991F0A94B4
:101C7000E2F7842B8C9398C0ABE3B0E0EBE3F0E0A9
:101C80008081482F8A81282F30E081E090E0022E69
:101C900002C0880F991F0A94E2F7809584238C93E1
:101CA00083C08B818130A1F4A8E3B0E0E8E3F0E0E9
:101CB0008081482F8A81282F30E081E090E0022E39
:101CC00002C0880F991F0A94E2F7842B8C936CC092
:101CD000A8E3B0E0E8E3F0E08081482F8A81282F74
:101CE00030E081E090E0022E02C0880F991F0A9434
:101CF000E2F7809584238C9357C08B818130A1F4C7
:101D0000A5E3B0E0E5E3F0E08081482F8A81282F49
:101D100030E081E090E0022E02C0880F991F0A9403
:101D2000E2F7842B8C9340C0A5E3B0E0E5E3F0E05C
:101D30008081482F8A81282F30E081E090E0022EB8
:101D400002C0880F991F0A94E2F7809584238C9330
:101D50002BC08B818130A1F4A2E3B0E0E2E3F0E09C
:101D60008081482F8A81282F30E081E090E0022E88
:101D700002C0880F991F0A94E2F7842B8C9314C039
:101D8000A2E3B0E0E2E3F0E08081482F8A81282FCF
:101D900030E081E090E0022E02C0880F991F0A9483
:101DA000E2F7809584238C930F900F900F900F9003
:101DB0000F90CF91DF910895DF93CF9300D000D0A3
:101DC0000F92CDB7DEB78A836B838A81282F30E0EC
:101DD0003D832C834C815D8141305105B1F18C8173
:101DE0009D818230910534F42C813D81211531058E
:101DF00071F084C04C815D814230510509F443C0CB
:101E00008C819D818330910509F45BC077C0E9E343
:101E1000F0E08081482F50E08B81282F30E081E076
:101E200090E002C0880F991F2A95E2F79A012823B3
:101E300039238B81882F90E0A90102C055954795E1
:101E40008A95E2F7CA01898359C0E6E3F0E0808110
:101E5000482F50E08B81282F30E081E090E002C0D5
:101E6000880F991F2A95E2F79A01282339238B813D
:101E7000882F90E0A90102C0559547958A95E2F711
:101E8000CA0189833BC0E3E3F0E08081482F50E042
:101E90008B81282F30E081E090E002C0880F991FED
:101EA0002A95E2F79A01282339238B81882F90E025
:101EB000A90102C0559547958A95E2F7CA01898321
:101EC0001DC0E0E3F0E08081482F50E08B81282F97
:101ED00030E081E090E002C0880F991F2A95E2F778
:101EE0009A01282339238B81882F90E0A90102C011
:101EF000559547958A95E2F7CA01898389810F90A4
:101F00000F900F900F900F90CF91DF910895DF9376
:101F1000CF9300D000D0CDB7DEB789836A838981A3
:101F2000282F30E03C832B838B819C81813091056D
:101F300049F12B813C81223031052CF48B819C812D
:101F4000009761F05AC02B813C812230310571F13C
:101F50008B819C8183309105E9F14FC0ABE3B0E008
:101F6000EBE3F0E08081482F8A81282F30E081E088
:101F700090E0022E02C0880F991F0A94E2F784278E
:101F80008C933BC0A8E3B0E0E8E3F0E08081482F09
:101F90008A81282F30E081E090E0022E02C0880F75
:101FA000991F0A94E2F784278C9327C0A5E3B0E039
:101FB000E5E3F0E08081482F8A81282F30E081E03E
:101FC00090E0022E02C0880F991F0A94E2F784273E
:101FD0008C9313C0A2E3B0E0E2E3F0E08081482FED
:101FE0008A81282F30E081E090E0022E02C0880F25
:101FF000991F0A94E2F784278C930F900F900F900B
:102000000F90CF91DF910895DF93CF9300D000D050
:10201000CDB7DEB789836A838981282F30E03C837E
:102020002B838B819C818130910509F12B813C812F
:10203000223031052CF48B819C81009761F03AC0ED
:102040002B813C8122303105F1F08B819C818330E2
:10205000910529F12FC08A81813029F4EAE3F0E06B
:102060008FEF808327C0EAE3F0E0108223C08A81EB
:10207000813029F4E7E3F0E08FEF80831BC0E7E3D2
:10208000F0E0108217C08A81813029F4E4E3F0E0A7
:102090008FEF80830FC0E4E3F0E010820BC08A81F1
:1020A000813029F4E1E3F0E08FEF808303C0E1E3C6
:1020B000F0E010820F900F900F900F90CF91DF9172
:1020C0000895DF93CF9300D000D0CDB7DEB78983DA
:1020D0006A838981282F30E03C832B838B819C810C
:1020E00081309105D1F02B813C81223031052CF4D7
:1020F0008B819C81009761F01EC02B813C81223036
:10210000310581F08B819C818330910581F013C072
:10211000EBE3F0E08A8180830EC0E8E3F0E08A819F
:10212000808309C0E5E3F0E08A81808304C0E2E3B4
:10213000F0E08A8180830F900F900F900F90CF91E5
:10214000DF910895DF93CF9300D00F92CDB7DEB724
:102150008A836B83198208C08A8169814B810E94BE
:10216000160D89818F5F898389818430A8F30F9050
:102170000F900F90CF91DF910895DF93CF9300D010
:102180000F92CDB7DEB78A836B8384E0898308C062
:102190008A8169814B810E94160D89818F5F8983B5
:1021A00089818830A8F30F900F900F90CF91DF9125
:1021B0000895DF93CF9300D000D0CDB7DEB78983E9
:1021C0006A838A818F708A838981282F30E03C83DB
:1021D0002B838B819C818130910529F12B813C815E
:1021E000223031052CF48B819C81009761F04AC02C
:1021F0002B813C812230310531F18B819C818330F0
:10220000910589F13FC0ABE3B0E0EBE3F0E0808102
:10221000807F8C93ABE3B0E0EBE3F0E090818A81C8
:10222000892B8C932FC0A8E3B0E0E8E3F0E0808135
:10223000807F8C93A8E3B0E0E8E3F0E090818A81AE
:10224000892B8C931FC0A5E3B0E0E5E3F0E080812B
:10225000807F8C93A5E3B0E0E5E3F0E090818A8194
:10226000892B8C930FC0A2E3B0E0E2E3F0E0808121
:10227000807F8C93A2E3B0E0E2E3F0E090818A817A
:10228000892B8C930F900F900F900F90CF91DF912F
:102290000895DF93CF9300D000D0CDB7DEB7898308
:1022A0006A838A81807F8A838981282F30E03C83FA
:1022B0002B838B819C818130910529F12B813C817D
:1022C000223031052CF48B819C81009761F04AC04B
:1022D0002B813C812230310531F18B819C8183300F
:1022E000910589F13FC0ABE3B0E0EBE3F0E0808122
:1022F0008F708C93ABE3B0E0EBE3F0E090818A81E8
:10230000892B8C932FC0A8E3B0E0E8E3F0E0808154
:102310008F708C93A8E3B0E0E8E3F0E090818A81CD
:10232000892B8C931FC0A5E3B0E0E5E3F0E080814A
:102330008F708C93A5E3B0E0E5E3F0E090818A81B3
:10234000892B8C930FC0A2E3B0E0E2E3F0E0808140
:102350008F708C93A2E3B0E0E2E3F0E090818A8199
:10236000892B8C930F900F900F900F90CF91DF914E
:1023700008950F931F93DF93CF9300D000D0CDB774
:10238000DEB769837A838B839C83A1E2B0E0E1E2CC
:10239000F0E080818D7F8C93A1E2B0E0E1E2F0E09B
:1023A00080818E7F8C9300E210E080E092E1AAE7CA
:1023B000B0E029813A814B815C81BC01CD010E9452
:1023C0003B1EDA01C9014097A109B1099C01AD0189
:1023D0005695479537952795DA01C901880F991FBA
:1023E000AA1FBB1F880F991FAA1FBB1F820F931F15
:1023F000A41FB51FF80180830F900F900F900F90CE
:10240000CF91DF911F910F910895DF93CF93CDB7B7
:10241000DEB7E6E5F0E084EA8083E6E5F0E080817F
:10242000881F8827881F882F90E090700097A9F355
:10243000A1E2B0E0E1E2F0E08081887F8C938C91B2
:102440008830B1F7CF91DF910895DF93CF930F924A
:10245000CDB7DEB78983E3E2F0E089818083E6E5EA
:10246000F0E084E88083E6E5F0E08081881F88273B
:10247000881F882F90E090700097A9F3A1E2B0E048
:10248000E1E2F0E08081887F8C938C918831B1F714
:102490000F90CF91DF910895DF93CF930F92CDB737
:1024A000DEB78983E3E2F0E089818083E6E5F0E04E
:1024B00084E88083E6E5F0E08081881F8827881F14
:1024C000882F90E090700097A9F3A1E2B0E0E1E2DC
:1024D000F0E08081887F8C938C918832B1F70F90E7
:1024E000CF91DF910895DF93CF93CDB7DEB7E6E5C7
:1024F000F0E084E98083CF91DF910895DF93CF935B
:102500000F92CDB7DEB78983E2E2F0E08981808364
:102510000F90CF91DF910895DF93CF93CDB7DEB7C2
:10252000E6E5F0E084EC8083E6E5F0E08081881F5A
:102530008827881F882F90E090700097A9F3A1E268
:10254000B0E0E1E2F0E08081887F8C938C9180366E
:10255000B1F7E6E5F0E084EC8083E6E5F0E0808129
:10256000881F8827881F882F90E090700097A9F314
:10257000A1E2B0E0E1E2F0E08081887F8C938C9171
:102580008038B1F7E3E2F0E08081CF91DF910895E8
:10259000DF93CF93CDB7DEB7E6E5F0E084EA808342
:1025A000E6E5F0E08081881F8827881F882F90E06B
:1025B00090700097A9F3E1E2F0E08081882F90E02D
:1025C000887F907080319105B1F7CF91DF910895A8
:1025D000DF93CF93CDB7DEB7E6E5F0E084E8808304
:1025E000E6E5F0E08081881F8827881F882F90E02B
:1025F00090700097A9F3E1E2F0E08081882F90E0ED
:10260000887F907088359105B1F7E3E2F0E0808132
:10261000CF91DF910895DF93CF930F92CDB7DEB7BF
:102620008983E3E2F0E089818083E6E5F0E084E8F5
:102630008083E6E5F0E08081881F8827881F882F47
:1026400090E090700097A9F3E1E2F0E08081882F9C
:1026500090E0887F907080349105B1F70F90CF9112
:10266000DF910895DF93CF9300D0CDB7DEB7898394
:102670006A830E94051289810E9425128A810E9424
:102680004C120E9473120F900F90CF91DF9108951A
:10269000DF93CF9300D0CDB7DEB78A830E940512B7
:1026A0008A810E9425120E94C8128A818F5F0E942F
:1026B0000B130E94E81289830E94731289810F9084
:1026C0000F90CF91DF910895DF93CF930F92CDB705
:1026D000DEB78983898161E00E94A210898160E070
:1026E0000E94BD10898160EF0E9449110F90CF9127
:1026F000DF910895DF93CF9300D000D00F92CDB734
:10270000DEB78D838FEF89831C8235C08D816FE0AA
:102710000E94D9108D816C8140E00E94F90D1B82CE
:1027200021C08B81982F9C5F8D81692F0E94DC0EC8
:102730008A838A81882399F48C81482F50E08B8189
:10274000282F30E0CA01880F991F880F991F820F28
:10275000931FFC01E550FE4F8081898306C08B8169
:102760008F5F8B838B818430E0F28A81882331F004
:102770008C818F5F8C838C81843040F289810F90B3
:102780000F900F900F900F90CF91DF9108950F93BE
:102790001F93DF93CF93CDB7DEB7C455D0400FB6AC
:1027A000F894DEBF0FBECDBFFE01EF5AFF4F80E0B1
:1027B00090E0A0E2B2E480839183A283B3838E0190
:1027C000035B1F4FFE01EF5AFF4F608171818281D1
:1027D000938120E030E04AEF54E40E941F02DC01C4
:1027E000CB01F80180839183A283B383FE01E35B75
:1027F000FF4F608171818281938120E030E040E869
:102800005FE30E947903882344F4FE01E55BFF4FF8
:1028100081E090E09183808364C0FE01E35BFF4F21
:10282000608171818281938120E03FEF4FE757E41F
:102830000E94190318160CF043C0FE01EF5AFF4F17
:10284000608171818281938120E030E040E251E437
:102850000E941F02DC01CB018E01055B1F4FBC01F2
:10286000CD010E944900DC01CB01F80191838083F6
:102870001FC0FE01E75BFF4F88EC90E091838083EF
:10288000FE01E75BFF4F808191810197F1F7FE0127
:10289000E75BFF4F91838083DE01A55BBF4FFE01A5
:1028A000E55BFF4F80819181019711969C938E93F8
:1028B000FE01E55BFF4F808191810097D1F627C033
:1028C0008E01055B1F4FFE01E35BFF4F608171814D
:1028D000828193810E944900DC01CB01F801918340
:1028E0008083DE01A95BBF4FFE01E55BFF4F808166
:1028F00091818D939C93FE01E95BFF4F80819181D3
:102900000197F1F7FE01E95BFF4F9183808380E03F
:1029100066E041E00E94160D80E065E041E00E9423
:10292000160D80E064E041E00E94160D80E061E059
:102930000E94A21082E00E940217FE01ED5BFF4F91
:1029400080E090E0A0E7B1E480839183A283B38329
:102950008E01015C1F4FFE01ED5BFF4F60817181B5
:102960008281938120E030E04AEF54E40E941F020C
:10297000DC01CB01F80180839183A283B383FE0144
:10298000FF96608171818281938120E030E040E890
:102990005FE30E94790388232CF481E090E09EAFEE
:1029A0008DAF46C0FE01FF96608171818281938167
:1029B00020E03FEF4FE757E40E941903181664F533
:1029C000FE01ED5BFF4F608171818281938120E088
:1029D00030E040E251E40E941F02DC01CB01BC0167
:1029E000CD010E944900DC01CB019EAF8DAF0FC02D
:1029F00088EC90E09CAF8BAF8BAD9CAD0197F1F76D
:102A00009CAF8BAF8DAD9EAD01979EAF8DAF8DAD61
:102A10009EAD009769F716C0FE01FF966081718137
:102A2000828193810E944900DC01CB019EAF8DAF72
:102A30008DAD9EAD9AAF89AF89AD9AAD0197F1F793
:102A40009AAF89AF88E20E94021780E090E0A0E888
:102A5000BFE38DAB9EABAFABB8AF6DA97EA98FA91D
:102A600098AD20E030E04AEF54E40E941F02DC0100
:102A7000CB0189AB9AABABABBCAB69A97AA98BA9EB
:102A80009CA920E030E040E85FE30E9479038823BE
:102A90002CF481E090E098AB8FA73FC069A97AA998
:102AA0008BA99CA920E03FEF4FE757E40E94190350
:102AB00018164CF56DA97EA98FA998AD20E030E0DD
:102AC00040E251E40E941F02DC01CB01BC01CD01B8
:102AD0000E944900DC01CB0198AB8FA70FC088ECA6
:102AE00090E09EA78DA78DA59EA50197F1F79EA7C3
:102AF0008DA78FA598A9019798AB8FA78FA598A9A7
:102B0000009769F714C069A97AA98BA99CA90E94AA
:102B10004900DC01CB0198AB8FA78FA598A99CA792
:102B20008BA78BA59CA50197F1F79CA78BA78EE09F
:102B30000E94021780E090E0A0E8BFE38FA398A76F
:102B4000A9A7BAA76FA178A589A59AA520E030E02A
:102B50004AEF54E40E941F02DC01CB018BA39CA32B
:102B6000ADA3BEA36BA17CA18DA19EA120E030E00E
:102B700040E85FE30E94790388232CF481E090E031
:102B80009AA389A33FC06BA17CA18DA19EA120E047
:102B90003FEF4FE757E40E94190318164CF56FA159
:102BA00078A589A59AA520E030E040E251E40E9492
:102BB0001F02DC01CB01BC01CD010E944900DC01F8
:102BC000CB019AA389A30FC088EC90E098A38F8FC4
:102BD0008F8D98A10197F1F798A38F8F89A19AA162
:102BE00001979AA389A389A19AA1009769F714C0B4
:102BF0006BA17CA18DA19EA10E944900DC01CB01AB
:102C00009AA389A389A19AA19E8F8D8F8D8D9E8D68
:102C10000197F1F79E8F8D8F81E00E94021780E06F
:102C200090E0A0E2B1E4898F9A8FAB8FBC8F698D61
:102C30007A8D8B8D9C8D20E030E04AEF54E40E9429
:102C40001F02DC01CB018D8B9E8BAF8BB88F6D8902
:102C50007E898F89988D20E030E040E85FE30E9414
:102C6000790388232CF481E090E09C8B8B8B3FC010
:102C70006D897E898F89988D20E03FEF4FE757E47B
:102C80000E94190318164CF5698D7A8D8B8D9C8DD9
:102C900020E030E040E251E40E941F02DC01CB0161
:102CA000BC01CD010E944900DC01CB019C8B8B8BC8
:102CB0000FC088EC90E09A8B898B89899A8901975B
:102CC000F1F79A8B898B8B899C8901979C8B8B8BD5
:102CD0008B899C89009769F714C06D897E898F89DB
:102CE000988D0E944900DC01CB019C8B8B8B8B89DA
:102CF0009C89988B8F878F8598890197F1F7988B9E
:102D00008F8786E00E94021780E090E0A0E8BFE392
:102D10008B879C87AD87BE876B857C858D859E85DF
:102D200020E030E04AEF54E40E941F02DC01CB01B6
:102D30008F839887A987BA876F81788589859A85D7
:102D400020E030E040E85FE30E94790388232CF420
:102D500081E090E09E838D833FC06F817885898577
:102D60009A8520E03FEF4FE757E40E9419031816B9
:102D70004CF56B857C858D859E8520E030E040E2BA
:102D800051E40E941F02DC01CB01BC01CD010E9475
:102D90004900DC01CB019E838D830FC088EC90E05D
:102DA0009C838B838B819C810197F1F79C838B8320
:102DB0008D819E8101979E838D838D819E81009759
:102DC00069F714C06F81788589859A850E944900CA
:102DD000DC01CB019E838D838D819E819A838983C3
:102DE00089819A810197F1F79A838983CC5ADF4FC1
:102DF0000FB6F894DEBF0FBECDBFCF91DF911F910C
:102E00000F910895DF93CF93CDB7DEB72F970FB60D
:102E1000F894DEBF0FBECDBF8F878F85982F929518
:102E20009F7080E0692F0E94D91080E066E040E04A
:102E30000E94F90D80E065E040E00E94F90D0E94DB
:102E4000AC1780E06F850E94D91080E066E040E01A
:102E50000E94F90D80E065E040E00E94F90D0E94BB
:102E6000AC1780E090E0A0E0B0E48B879C87AD8752
:102E7000BE876B857C858D859E8520E030E04AEF9E
:102E800054E40E941F02DC01CB018F839887A9873D
:102E9000BA876F81788589859A8520E030E040E89F
:102EA0005FE30E94790388232CF481E090E09E8305
:102EB0008D833FC06F81788589859A8520E03FEFBB
:102EC0004FE757E40E94190318164CF56B857C8573
:102ED0008D859E8520E030E040E251E40E941F0293
:102EE000DC01CB01BC01CD010E944900DC01CB011A
:102EF0009E838D830FC088EC90E09C838B838B81B5
:102F00009C810197F1F79C838B838D819E81019732
:102F10009E838D838D819E81009769F714C06F8198
:102F2000788589859A850E944900DC01CB019E83C2
:102F30008D838D819E819A83898389819A8101976E
:102F4000F1F79A8389832F960FB6F894DEBF0FBEF0
:102F5000CDBFCF91DF910895DF93CF93CDB7DEB78B
:102F60002E970FB6F894DEBF0FBECDBF80E064E0B1
:102F700041E00E94F90D80E090E0A0E0B0E48B8792
:102F80009C87AD87BE876B857C858D859E8520E07F
:102F900030E04AEF54E40E941F02DC01CB018F8332
:102FA0009887A987BA876F81788589859A8520E077
:102FB00030E040E85FE30E94790388232CF481E04D
:102FC00090E09E838D833FC06F81788589859A8547
:102FD00020E03FEF4FE757E40E94190318164CF525
:102FE0006B857C858D859E8520E030E040E251E454
:102FF0000E941F02DC01CB01BC01CD010E944900EF
:10300000DC01CB019E838D830FC088EC90E09C8314
:103010008B838B819C810197F1F79C838B838D81BE
:103020009E8101979E838D838D819E81009769F794
:1030300014C06F81788589859A850E944900DC01DA
:10304000CB019E838D838D819E819A838983898123
:103050009A810197F1F79A83898380E064E040E0E8
:103060000E94F90D2E960FB6F894DEBF0FBECDBFAD
:10307000CF91DF910895DF93CF93CDB7DEB76197FE
:103080000FB6F894DEBF0FBECDBF888B698B8889E1
:10309000882349F08889833030F48989813118F494
:1030A0008989882319F480E88F870DC08889813049
:1030B00021F4898981588F8706C08889823019F464
:1030C000898981548F878F850E94021780E090E064
:1030D000A0E8BFE38B879C87AD87BE876B857C8527
:1030E0008D859E8520E030E04AEF54E40E941F0267
:1030F000DC01CB018F839887A987BA876F81788598
:1031000089859A8520E030E040E85FE30E947903FA
:1031100088232CF481E090E09E838D833FC06F81F3
:10312000788589859A8520E03FEF4FE757E40E9434
:10313000190318164CF56B857C858D859E8520E0DE
:1031400030E040E251E40E941F02DC01CB01BC01EF
:10315000CD010E944900DC01CB019E838D830FC00D
:1031600088EC90E09C838B838B819C810197F1F7A5
:103170009C838B838D819E8101979E838D838D811E
:103180009E81009769F714C06F81788589859A853B
:103190000E944900DC01CB019E838D838D819E813D
:1031A0009A83898389819A810197F1F79A83898328
:1031B00061960FB6F894DEBF0FBECDBFCF91DF9101
:1031C0000895DF93CF93CDB7DEB72E970FB6F8945F
:1031D000DEBF0FBECDBF81E00E94021780E090E00D
:1031E000A0E2B1E48B879C87AD87BE876B857C8529
:1031F0008D859E8520E030E04AEF54E40E941F0256
:10320000DC01CB018F839887A987BA876F81788586
:1032100089859A8520E030E040E85FE30E947903E9
:1032200088232CF481E090E09E838D833FC06F81E2
:10323000788589859A8520E03FEF4FE757E40E9423
:10324000190318164CF56B857C858D859E8520E0CD
:1032500030E040E251E40E941F02DC01CB01BC01DE
:10326000CD010E944900DC01CB019E838D830FC0FC
:1032700088EC90E09C838B838B819C810197F1F794
:103280009C838B838D819E8101979E838D838D810D
:103290009E81009769F714C06F81788589859A852A
:1032A0000E944900DC01CB019E838D838D819E812C
:1032B0009A83898389819A810197F1F79A83898317
:1032C0002E960FB6F894DEBF0FBECDBFCF91DF9123
:1032D0000895DF93CF93CDB7DEB72F970FB6F8944D
:1032E000DEBF0FBECDBF8F878F85982F92959F70C1
:1032F00080E0692F0E94D91080E066E041E00E94E2
:10330000F90D80E065E040E00E94F90D0E94AC17E5
:1033100080E06F850E94D91080E066E041E00E9465
:10332000F90D80E065E040E00E94F90D0E94AC17C5
:1033300080E090E0A0E0B0E48B879C87AD87BE87FB
:103340006B857C858D859E8520E030E04AEF54E4D6
:103350000E941F02DC01CB018F839887A987BA875F
:103360006F81788589859A8520E030E040E85FE3C9
:103370000E94790388232CF481E090E09E838D8362
:103380003FC06F81788589859A8520E03FEF4FE7C0
:1033900057E40E94190318164CF56B857C858D85C2
:1033A0009E8520E030E040E251E40E941F02DC01F3
:1033B000CB01BC01CD010E944900DC01CB019E8301
:1033C0008D830FC088EC90E09C838B838B819C81E4
:1033D0000197F1F79C838B838D819E8101979E835A
:1033E0008D838D819E81009769F714C06F817885E8
:1033F00089859A850E944900DC01CB019E838D83DB
:103400008D819E819A83898389819A810197F1F7C1
:103410009A8389832F960FB6F894DEBF0FBECDBF77
:10342000CF91DF910895DF93CF9300D0CDB7DEB772
:103430009A8389830AC0E981FA8180810E9469198F
:1034400089819A8101969A838983E981FA818081B1
:10345000882389F70F900F90CF91DF910895DF9324
:10346000CF9300D000D00F92CDB7DEB76A837B83B5
:103470008C839D836A817B818C819D810E94490020
:10348000DC01CB01282F30E000D000D000D0EDB718
:10349000FEB73196CE0101969183808380ED90E056
:1034A00093838283358324830E94941E8DB79EB7B5
:1034B00006960FB6F8949EBF0FBE8DBFCE01019643
:1034C0000E94131A8EE20E9469196A817B818C81A5
:1034D0009D810E944900DC01CB01882F90E0AA2742
:1034E00097FDA095BA2FBC01CD010E94A9039B01B5
:1034F000AC016A817B818C819D810E94C101DC01CC
:10350000CB01BC01CD0120E030E048EC52E40E9448
:103510001F02DC01CB018A839B83AC83BD836A815C
:103520007B818C819D810E944900DC01CB01282F89
:1035300030E000D000D000D0EDB7FEB73196CE011C
:1035400001969183808380ED90E09383828335831D
:1035500024830E94941E8DB79EB706960FB6F894EA
:103560009EBF0FBE8DBFCE0101960E94131A0F9011
:103570000F900F900F900F90CF91DF910895DF93F0
:10358000CF9300D0CDB7DEB789836A8389816A8102
:1035900041E00E94160D89816A8141E00E94F90D87
:1035A0000F900F90CF91DF910895DF93CF9300D0CC
:1035B000CDB7DEB789836A8389816A8141E00E9441
:1035C000160D89816A8140E00E94F90D0F900F90DD
:1035D000CF91DF910895DF93CF9300D0CDB7DEB7C1
:1035E00089836A8389816A8141E00E94160D8981FD
:1035F0006A810E94870F0F900F90CF91DF910895FD
:10360000DF93CF9300D000D000D0CDB7DEB76B836F
:103610007C838D839E83A0E4B0E0E0E4F0E08081D1
:103620008F778C93A0E4B0E0E0E4F0E080818F77C6
:103630008C938B819C81AD81BE81880F991FAA1FBD
:10364000BB1F880F991FAA1FBB1F880F991FAA1F96
:10365000BB1F880F991FAA1FBB1F9C01AD0180E0F3
:1036600092E1AAE7B0E0BC01CD010E943B1EDA0165
:10367000C90101979A838983A0E4B0E0E0E4F0E017
:10368000808182608C93A0E4B0E0E0E4F0E080818F
:1036900084608C93AAE2B0E0EAE2F0E080818B7F64
:1036A0008C93A0E4B0E0E0E4F0E080818F7E8C9326
:1036B000A0E4B0E0E0E4F0E080818F7D8C93A0E4B2
:1036C000B0E0E0E4F0E0808188608C93AAE2B0E0B2
:1036D000EAE2F0E0808188608C93AAE2B0E0EAE25E
:1036E000F0E0808180618C93A0E4B0E0E0E4F0E061
:1036F000808180688C93E0E4F0E089819A81892F51
:1037000099278083E9E2F0E08981808326960FB6CD
:10371000F894DEBF0FBECDBFCF91DF910895DF9348
:10372000CF930F92CDB7DEB78983EBE2F0E08081D3
:10373000882F90E0807290709595879595958795E4
:10374000959587959595879595958795009769F3B4
:10375000ECE2F0E0898180830F90CF91DF910895B2
:10376000DF93CF93CDB7DEB7EBE2F0E08081881F27
:103770008827881F882F90E090700097A9F3ECE2CB
:10378000F0E08081CF91DF910895DF93CF93CDB7A3
:10379000DEB7AAE2B0E0EAE2F0E0808180648C93D8
:1037A000CF91DF910895DF93CF93CDB7DEB7AAE233
:1037B000B0E0EAE2F0E0808180688C93CF91DF9105
:1037C0000895DF93CF93CDB7DEB7AAE2B0E0EAE287
:1037D000F0E0808180628C93CF91DF910895DF9338
:1037E000CF9300D0CDB7DEB79A83898389819A8140
:1037F00090931702809316020F900F90CF91DF9154
:103800000895DF93CF9300D0CDB7DEB79A83898335
:1038100089819A8190931902809318020F900F90DA
:10382000CF91DF910895DF93CF9300D0CDB7DEB76E
:103830009A83898389819A819093150280931402D7
:103840000F900F90CF91DF910895DF93CF9300D029
:10385000CDB7DEB79A8389830AC0E981FA81808176
:103860000E948F1B89819A8101969A838983E981BD
:10387000FA818081882389F70F900F90CF91DF9193
:103880000895DF93CF9300D000D000D0CDB7DEB73E
:103890006B837C838D839E8319821CC08981882FD2
:1038A00090E09C01220F331F220F331F220F331F82
:1038B0008B819C81AD81BE8104C0B695A7959795FB
:1038C00087952A95D2F78A838A810E948F1B8981E6
:1038D0008F5F89838981843008F326960FB6F89428
:1038E000DEBF0FBECDBFCF91DF910895DF93CF93A1
:1038F00000D000D00F92CDB7DEB7198228C00E9449
:10390000B01B282F30E08981882F90E0880F991F05
:10391000880F991F880F991FA90102C0440F551FD6
:103920008A95E2F7CA019C01442737FD4095542F40
:103930008A819B81AC81BD81822B932BA42BB52BDB
:103940008A839B83AC83BD8389818F5F89838981CF
:103950008430A8F28A819B81AC81BD81BC01CD01FC
:103960000F900F900F900F900F90CF91DF910895CF
:10397000DF93CF93CDB7DEB76C970FB6F894DEBF69
:103980000FBECDBF0E94C71360E573EC80E090E0EE
:103990000E94B91181E00E94641380E090E0AAEFD8
:1039A000B3E4898F9A8FAB8FBC8F698D7A8D8B8DA5
:1039B0009C8D20E030E04AEF54E40E941F02DC01BD
:1039C000CB018D8B9E8BAF8BB88F6D897E898F8954
:1039D000988D20E030E040E85FE30E94790388237F
:1039E0002CF481E090E09C8B8B8B3FC06D897E89AD
:1039F0008F89988D20E03FEF4FE757E40E9419032D
:103A000018164CF5698D7A8D8B8D9C8D20E030E0F9
:103A100040E251E40E941F02DC01CB01BC01CD0158
:103A20000E944900DC01CB019C8B8B8B0FC088EC82
:103A300090E09A8B898B89899A890197F1F79A8B03
:103A4000898B8B899C8901979C8B8B8B8B899C891B
:103A5000009769F714C06D897E898F89988D0E94BF
:103A60004900DC01CB019C8B8B8B8B899C89988BCB
:103A70008F878F8598890197F1F7988B8F8785E0DD
:103A80000E943B07882319F40E94F50CE9C085E0E9
:103A900063E00E94220781E061E00E943B1883ED11
:103AA00090E00E94131A82E061E00E943B1882EECF
:103AB00090E00E94131A81E00E947A1380931B0207
:103AC00080911B028F3FB9F380E090E0AAEFB3E44E
:103AD0008B879C87AD87BE876B857C858D859E8512
:103AE00020E030E04AEF54E40E941F02DC01CB01E9
:103AF0008F839887A987BA876F81788589859A850A
:103B000020E030E040E85FE30E94790388232CF452
:103B100081E090E09E838D833FC06F8178858985A9
:103B20009A8520E03FEF4FE757E40E9419031816EB
:103B30004CF56B857C858D859E8520E030E040E2EC
:103B400051E40E941F02DC01CB01BC01CD010E94A7
:103B50004900DC01CB019E838D830FC088EC90E08F
:103B60009C838B838B819C810197F1F79C838B8352
:103B70008D819E8101979E838D838D819E8100978B
:103B800069F714C06F81788589859A850E944900FC
:103B9000DC01CB019E838D838D819E819A838983F5
:103BA00089819A810197F1F79A83898380911B0219
:103BB000813369F580E00E943B078F3F59F40E94F2
:103BC000590785E063E00E9422078CEC68E00E94C0
:103BD0003213E3CE0E94B709813039F40E945907AD
:103BE00085E063E00E94220708C00E943A0C85E04D
:103BF00090E00E940107009769F785E090E00E943D
:103C00000107009709F0C9CE0E94F50C29C08091E8
:103C10001B02823309F0C1CE80E00E943B078F3F38
:103C200039F40E94590785E063E00E942207B5CE6F
:103C30000E94B70980931A0280911A02813049F4D8
:103C40008CEC6FE00E94321385E063E00E94220753
:103C500007C00E943A0C85E00E943B07882341F789
:103C600080E090E06C960FB6F894DEBF0FBECDBF3B
:103C7000CF91DF910895A1E21A2EAA1BBB1BFD0173
:103C80000DC0AA1FBB1FEE1FFF1FA217B307E4073B
:103C9000F50720F0A21BB30BE40BF50B661F771F93
:103CA000881F991F1A9469F7609570958095909573
:103CB0009B01AC01BD01CF0108952F923F924F921D
:103CC0005F926F927F928F929F92AF92BF92CF92AC
:103CD000DF92EF92FF920F931F93CF93DF93CDB7B5
:103CE000DEB7CA1BDB0B0FB6F894DEBF0FBECDBF2D
:103CF00009942A88398848885F846E847D848C84FE
:103D00009B84AA84B984C884DF80EE80FD800C8106
:103D10001B81AA81B981CE0FD11D0FB6F894DEBFE9
:103D20000FBECDBFED010895AEE0B0E0EAE9FEE1DF
:103D30000C946B1E0D891E8986E08C831A8309837F
:103D40008FEF9FE79E838D839E01275E3F4FCE01BD
:103D500001966F89788DA9010E94B81E2F81388540
:103D6000020F131FF80110822E96E4E00C94871EB8
:103D7000ABE0B0E0EEEBFEE10C945D1E3C012B01EC
:103D80005A01FC0117821682838181FD03C06FEF07
:103D90007FEFC6C19AE0892E1E010894211C311CB8
:103DA000F3012381F20123FD859123FF81912F01EE
:103DB000882309F4B2C1853239F423FD859123FFAC
:103DC00081912F01853229F490E0B3010E94AB204C
:103DD000E7CF982FFF24EE249924FFE1FF15D0F0C0
:103DE0009B3269F09C3228F4903259F0933291F46E
:103DF0000EC09D3249F0903369F441E024C052E096
:103E0000F52A84E0F82A28C098E0F92A25C0E0E1E4
:103E1000FE2A22C0F7FC29C0892F80538A3070F413
:103E2000F6FE05C0989C902C1124980E15C0E89CB5
:103E3000E02C1124E80EF0E2FF2A0EC09E3229F495
:103E4000F6FC6BC140E4F42A07C09C3619F450E834
:103E5000F52A02C0983649F4F20123FD959123FF1B
:103E600091912F01992309F0B8CF892F8554833080
:103E700018F08052833038F444E050E0A40EB51EB0
:103E80005FE359830FC0933631F0933779F0933560
:103E900009F056C020C0F5018081898342E050E0DE
:103EA000A40EB51E610101E010E012C0F501C08052
:103EB000D180F6FC03C06FEF7FEF02C0692D70E088
:103EC00042E050E0A40EB51EC6010E94A0208C0165
:103ED0005FE7F52214C0F501C080D180F6FC03C075
:103EE0006FEF7FEF02C0692D70E042E050E0A40E5A
:103EF000B51EC6010E9495208C0150E8F52AF3FEFC
:103F000007C01AC080E290E0B3010E94AB20EA949F
:103F10008E2D90E008171907A8F30EC0F601F7FCE4
:103F20008591F7FE81916F0190E0B3010E94AB2073
:103F3000E110EA94015010400115110579F7EAC02B
:103F4000943611F0993669F5F7FE08C0F501208125
:103F500031814281538184E090E00AC0F501808183
:103F600091819C01442737FD4095542F82E090E0D9
:103F7000A80EB91E9FE6F92257FF09C0509540953B
:103F8000309521953F4F4F4F5F4FE0E8FE2ACA0121
:103F9000B901A1012AE030E00E94D720D82ED21822
:103FA00040C0953729F41F2D1F7E2AE030E01DC048
:103FB0001F2D197F9F3661F0903720F4983509F056
:103FC000ACC00FC0903739F0983709F0A6C004C0D4
:103FD00028E030E00AC0106114FD146020E130E0F8
:103FE00004C014FD166020E132E017FF08C0F5019F
:103FF000608171818281938144E050E008C0F501C5
:1040000080819181BC0180E090E042E050E0A40E0C
:10401000B51EA1010E94D720D82ED2188FE7F82E06
:10402000F122F6FE0BC05EEFF522D91438F4F4FE4F
:1040300007C0F2FC05C08FEEF82202C01D2D01C0A2
:10404000192DF4FE0DC0FE01ED0DF11D80818033B0
:1040500019F499EEF92208C01F5FF2FE05C003C0F3
:104060008F2D867809F01F5F0F2DF3FC14C0F0FE32
:104070000FC01E1510F09D2C0BC09D2C9E0C911A8C
:104080001E2D06C080E290E0B3010E94AB201F5FAE
:104090001E15C0F304C01E1510F4E11A01C0EE2471
:1040A00004FF0FC080E390E0B3010E94AB2002FF49
:1040B0001DC001FD03C088E790E00EC088E590E0D8
:1040C0000BC0802F867891F001FF02C08BE201C007
:1040D00080E2F7FC8DE290E0B3010E94AB2006C0C5
:1040E00080E390E0B3010E94AB209A94D914C0F30E
:1040F000DA94F101ED0DF11D808190E0B3010E9491
:10410000AB20DD20A9F706C080E290E0B3010E9459
:10411000AB20EA94EE20C1F743CEF30166817781AC
:10412000CB012B96E2E10C94791EFC0105906150C5
:1041300070400110D8F7809590958E0F9F1F0895BD
:10414000FC016150704001900110D8F78095909566
:104150008E0F9F1F08950F931F93CF93DF938C01B2
:10416000EB018B8181FF1BC082FF0DC02E813F813F
:104170008C819D812817390764F4E881F9810193C6
:10418000F983E88306C0E885F985802F0995892B96
:1041900031F48E819F8101969F838E8302C00FEF41
:1041A0001FEFC801DF91CF911F910F910895FA0180
:1041B000AA27283051F1203181F1E8946F936E7F66
:1041C0006E5F7F4F8F4F9F4FAF4FB1E03ED0B4E057
:1041D0003CD0670F781F891F9A1FA11D680F791F98
:1041E0008A1F911DA11D6A0F711D811D911DA11DA9
:1041F00020D009F468943F912AE0269F11243019B9
:10420000305D3193DEF6CF010895462F4770405D53
:104210004193B3E00FD0C9F7F6CF462F4F70405D02
:104220004A3318F0495D31FD4052419302D0A9F75D
:10423000EACFB4E0A6959795879577956795BA9557
:10424000C9F700976105710508959B01AC010A2E1D
:1042500006945795479537952795BA95C9F7620FF4
:0E426000731F841F951FA01D0895F894FFCFB3
:10426E00536574206E65772050617373003C50491E
:10427E004E3E005061737320497320536574005095
:10428E0041535320495320436F727265637400503B
:10429E004153532049532057726F6E6700596F7503
:1042AE002068617665005472696573206C6566746A
:1042BE0000594F5520415245204C4F434B45440029
:1042CE00436F6E7461637420536572766963650023
:1042DE00256400312D536574206E6577205061730F
:1042EE007300322D456E7465722050617373576F73
:1042FE0072640000000000000000000001020203D2
:10430E00030303040404040404040405050505055D
:10431E00050505050505050505050506060606063A
:10432E00060606060606060606060606060606061F
:10433E00060606060606060606060607070707070A
:10434E0007070707070707070707070707070707EF
:10435E0007070707070707070707070707070707DF
:10436E0007070707070707070707070707070707CF
:10437E0007070707070707070707070808080808BA
:10438E00080808080808080808080808080808089F
:10439E00080808080808080808080808080808088F
:1043AE00080808080808080808080808080808087F
:1043BE00080808080808080808080808080808086F
:1043CE00080808080808080808080808080808085F
:1043DE00080808080808080808080808080808084F
:1043EE00080808080808080808080808080808083F
:1043FE0008080808080808080808083738392F344C
:0C440E0035362A3132332D41303D2B0071
:00000001FF
