:100000000C942A000C94D5070C9402080C942F0829
:100010000C9447000C9447000C9447000C94470044
:100020000C9447000C9447000C9447000C94470034
:100030000C9447000C9447000C9447000C94470024
:100040000C9447000C9447000C9447000C94470014
:100050000C94470011241FBECFE5D8E0DEBFCDBF12
:1000600011E0A0E6B0E0EEE4F2E302C005900D92EC
:10007000A837B107D9F711E0A8E7B1E001C01D9298
:10008000AE37B107E1F70E944C150C9425190C947A
:100090000000EF92FF920F931F937B018C0120E0F1
:1000A00030E040E05FE40E94490388238CF0C801FF
:1000B000B70120E030E040E05FE40E94C1010E940F
:1000C00007049B01AC01205030404040504806C01E
:1000D000C801B7010E9407049B01AC01B901CA0124
:1000E0001F910F91FF90EF900895A0E0B0E0EBE733
:1000F000F0E00C944D16DC012B01FA019C9192303A
:1001000008F439C1EB018881823008F433C194309E
:1001100069F4843009F02FC111969C91119789815F
:10012000981709F428C1AFE6B0E025C1843009F47E
:1001300021C18230A9F4923009F01DC19A01AD01AC
:1001400088E0EA010990AE01E90109929E0181501F
:10015000C1F7E201898111969C918923818308C1AD
:10016000923009F407C112962D903C901397EB0141
:100170008A819B811496AD90BD90CD90DC901797AD
:10018000EC80FD800E811F819101281B390BB90184
:1001900037FF04C066277727621B730B6032710537
:1001A0000CF061C0121613066CF537014801062EDB
:1001B00004C096948794779467940A94D2F721E0C8
:1001C00030E040E050E004C0220F331F441F551FB1
:1001D0006A95D2F721503040404050402E213F21B7
:1001E00040235123211531054105510521F021E01E
:1001F00030E040E050E079018A01E628F72808293C
:1002000019293CC0232BD1F1260E371E350146019A
:10021000062E04C096948794779467940A94D2F734
:1002200021E030E040E050E004C0220F331F441FC3
:10023000551F6A95D2F721503040404050402A2146
:100240003B214C215D21211531054105510521F04E
:1002500021E030E040E050E059016A01A628B728CB
:10026000C828D9280BC0821593052CF01C01AA249C
:10027000BB24650103C0EE24FF24870111969C91E5
:10028000D20111968C91981709F445C0992339F041
:10029000A80197012A193B094C095D0906C0A6016E
:1002A00095012E193F09400B510B57FD08C01182D3
:1002B0003382228224833583468357831DC081E0A5
:1002C00081833382228288279927DC01821B930B4A
:1002D000A40BB50B84839583A683B7830DC0220F2F
:1002E000331F441F551F24833583468357838281E0
:1002F000938101979383828324813581468157813D
:10030000DA01C9010197A109B1098F5F9F4FAF4F72
:10031000BF4328F30BC0918333822282EA0CFB1C7B
:100320000C1D1D1DE482F5820683178383E0808304
:10033000248135814681578157FF1AC0C901AA27F8
:1003400097FDA095BA2F81709070A070B0705695EF
:10035000479537952795822B932BA42BB52B848318
:100360009583A683B7838281938101969383828349
:10037000DF0101C0D201CD01CDB7DEB7E2E10C94BF
:100380006916A0E2B0E0E7ECF1E00C94591669833D
:100390007A838B839C832D833E834F835887E9E048
:1003A000EE2EF12CEC0EFD1ECE010196B7010E943F
:1003B000F8058E010F5E1F4FCE010596B8010E9411
:1003C000F8058A8991E089278A8BC701B801AE01B7
:1003D000475E5F4F0E9475000E942305A096E6E0ED
:1003E0000C947516A0E2B0E0E8EFF1E00C94591619
:1003F00069837A838B839C832D833E834F835887C5
:10040000F9E0EF2EF12CEC0EFD1ECE010196B701A6
:100410000E94F8058E010F5E1F4FCE010596B801B0
:100420000E94F805C701B801AE01475E5F4F0E9408
:1004300075000E942305A096E6E00C947516A0E2D4
:10044000B0E0E5E2F2E00C944D1669837A838B8389
:100450009C832D833E834F835887CE010196BE0136
:10046000675F7F4F0E94F805CE010596BE016F5E63
:100470007F4F0E94F8059985923088F089898230F3
:10048000C8F0943019F4823051F404C0843029F457
:10049000923081F48FE690E0C6C0923049F420E0BB
:1004A0009A858A89981321E02A87CE010996BBC0D4
:1004B000823049F420E09A858A89981321E02A8BBA
:1004C000CE014196B0C02D843E844F8458886D88FB
:1004D0007E888F88988CEE24FF248701AA24BB2471
:1004E000650140E050E060E070E0E0E0F0E0C10174
:1004F00081709070892BE9F0E60CF71C081D191D1E
:100500009A01AB012A0D3B1D4C1D5D1D80E090E062
:10051000A0E0B0E0E614F7040805190520F481E036
:1005200090E0A0E0B0E0BA01A901480F591F6A1F8E
:100530007B1FAA0CBB1CCC1CDD1C97FE08C081E0F5
:1005400090E0A0E0B0E0A82AB92ACA2ADB2A3196B6
:10055000E032F10549F0660C771C881C991C569412
:10056000479437942794C3CFFA85EA892B893C892D
:100570008B859C85280F391F2E5F3F4F17C0CA01FE
:1005800081709070892B61F016950795F794E79428
:1005900080E090E0A0E0B0E8E82AF92A0A2B1B2BC3
:1005A00076956795579547952F5F3F4F77FDE7CF36
:1005B0000CC0440F551F661F771F17FD4160EE0CDE
:1005C000FF1C001F111F21503040403090E05907A0
:1005D00090E0690790E4790760F32B8F3C8FDB0193
:1005E000CA018F779070A070B07080349105A1051A
:1005F000B10561F447FD0AC0E114F10401051105DC
:1006000029F0405C5F4F6F4F7F4F40781A8EFE1786
:1006100011F081E08A8F4D8F5E8F6F8F78A383E01A
:10062000898FCE0149960E942305A096E2E10C94A1
:100630006916A8E1B0E0EFE1F3E00C945916698384
:100640007A838B839C832D833E834F83588789E0F5
:10065000E82EF12CEC0EFD1ECE010196B7010E9492
:10066000F8058E010F5E1F4FCE010596B8010E945E
:10067000F8058985823040F08989823028F0C701E9
:10068000B8010E94700601C08FEF6896E6E00C94F6
:100690007516A8E1B0E0EFE4F3E00C945916698315
:1006A0007A838B839C832D833E834F83588789E095
:1006B000E82EF12CEC0EFD1ECE010196B7010E9432
:1006C000F8058E010F5E1F4FCE010596B8010E94FE
:1006D000F8058985823040F08989823028F0C70189
:1006E000B8010E94700601C08FEF6896E6E00C9496
:1006F0007516A8E1B0E0EFE7F3E00C9459166983B2
:100700007A838B839C832D833E834F83588789E034
:10071000E82EF12CEC0EFD1ECE010196B7010E94D1
:10072000F8058E010F5E1F4FCE010596B8010E949D
:10073000F8058985823040F08989823028F0C70128
:10074000B8010E94700601C081E06896E6E00C9452
:100750007516A8E0B0E0EFEAF3E00C9456169B01A2
:10076000AC0183E08983DA01C9018827B7FD83954D
:100770009927AA27BB27B82E211531054105510518
:1007800019F482E089833AC08823A9F0203080E000
:10079000380780E0480780E8580729F460E070E0F7
:1007A00080E09FEC30C0EE24FF248701E21AF30AB8
:1007B000040B150B02C079018A018EE1C82ED12CE1
:1007C000DC82CB82ED82FE820F831887C801B701DD
:1007D0000E94D40401971816190684F4082E04C048
:1007E000EE0CFF1C001F111F0A94D2F7ED82FE824F
:1007F0000F831887C81AD90ADC82CB82BA82CE014D
:1008000001960E9423052896E9E00C947216ACE04C
:10081000B0E0EDE0F4E00C945D1669837A838B839D
:100820009C83CE010196BE016B5F7F4F0E94F8054D
:100830008D81823061F1823050F1843021F48E81DB
:10084000882351F12EC02F81388537FD20C06E815D
:100850002F3131051CF06623F9F023C08EE190E0C2
:10086000821B930B29853A854B855C8504C0569580
:100870004795379527958A95D2F76623B1F050951D
:100880004095309521953F4F4F4F5F4F0EC020E070
:1008900030E040E050E009C02FEF3FEF4FEF5FE75F
:1008A00004C020E030E040E050E8B901CA012C96D5
:1008B000E2E00C947916A8E0B0E0E1E6F4E00C94F4
:1008C00055167B018C01611571058105910519F49F
:1008D00082E0898360C083E089838EE1C82ED12CB9
:1008E000DC82CB82ED82FE820F831887C801B701BC
:1008F0000E94D404FC013197F7FF3BC02227332725
:100900002E1B3F0B57016801022E04C0D694C794DA
:10091000B794A7940A94D2F740E050E060E070E00A
:1009200081E090E0A0E0B0E004C0880F991FAA1F0A
:10093000BB1F2A95D2F70197A109B1098E219F21EA
:10094000A023B1230097A105B10521F041E050E0BB
:1009500060E070E04A295B296C297D294D835E8324
:100960006F8378878EE190E08E1B9F0B9C838B8337
:1009700012C0309781F00E2E04C0EE0CFF1C001F39
:10098000111F0A94D2F7ED82FE820F831887CE1AC8
:10099000DF0ADC82CB821A82CE0101960E942305F7
:1009A0002896EAE00C947116EF92FF920F931F9332
:1009B0007B018C0180E0E81680E0F80681E0080702
:1009C00080E0180788F48FEFE816F104010511059F
:1009D00031F028F088E090E0A0E0B0E017C080E0BF
:1009E00090E0A0E0B0E012C080E0E81680E0F806F9
:1009F00080E0080781E0180728F088E190E0A0E097
:100A0000B0E004C080E190E0A0E0B0E020E230E09F
:100A100040E050E0281B390B4A0B5B0B04C01695D5
:100A20000795F794E7948A95D2F7F701E958FF4FB5
:100A30008081281B310941095109C9011F910F917A
:100A4000FF90EF900895DF92EF92FF920F931F9324
:100A5000FC01E480F58006811781D180808182309D
:100A600048F480E090E0A0E1B0E0E82AF92A0A2BFF
:100A70001B2BA5C0843009F49FC0823021F4EE24E2
:100A8000FF24870105C0E114F1040105110519F4E3
:100A9000E0E0F0E096C0628173819FEF62387907F1
:100AA0000CF05BC022E83FEF261B370B2A313105E3
:100AB0002CF020E030E040E050E02AC0B801A7016F
:100AC000022E04C076956795579547950A94D2F7FC
:100AD00081E090E0A0E0B0E004C0880F991FAA1F59
:100AE000BB1F2A95D2F70197A109B1098E219F2139
:100AF000A023B1230097A105B10521F081E090E08A
:100B0000A0E0B0E09A01AB01282B392B4A2B5B2BDC
:100B1000DA01C9018F779070A070B07080349105B0
:100B2000A105B10539F427FF09C0205C3F4F4F4FA5
:100B30005F4F04C0215C3F4F4F4F5F4FE0E0F0E05C
:100B40002030A0E03A07A0E04A07A0E45A0710F0DE
:100B5000E1E0F0E079018A0127C06038710564F5B1
:100B6000FB01E158FF4FD801C7018F779070A0704B
:100B7000B07080349105A105B10539F4E7FE0DC0D0
:100B800080E490E0A0E0B0E004C08FE390E0A0E05B
:100B9000B0E0E80EF91E0A1F1B1F17FF05C01695CF
:100BA0000795F794E794319687E016950795F794A3
:100BB000E7948A95D1F705C0EE24FF248701EFEF73
:100BC000F0E06E2F679566276795902F9F77D794F3
:100BD000DD24D7948E2F8695492F462B582F5D29DB
:100BE000B701CA011F910F91FF90EF90DF90089518
:100BF000FC01DB01408151812281622F6F7770E01F
:100C0000221F2227221F9381892F880F822B282FB2
:100C100030E0991F9927991F11969C9311972115E0
:100C20003105A9F5411551056105710511F482E001
:100C300037C082E89FEF13969C938E9312979A0188
:100C4000AB0167E0220F331F441F551F6A95D1F790
:100C500083E08C930DC0220F331F441F551F129643
:100C60008D919C911397019713969C938E93129755
:100C7000203080E0380780E0480780E4580758F3C8
:100C800014962D933D934D935C93179708952F3FA2
:100C9000310579F4411551056105710519F484E0B8
:100CA0008C93089564FF03C081E08C9312C01C9262
:100CB00010C02F57304013963C932E93129783E029
:100CC0008C9387E0440F551F661F771F8A95D1F7D5
:100CD000706414964D935D936D937C93179708956C
:100CE0001F93DC01FB019C91923008F447C0808186
:100CF000823008F443C0943051F411961C91843032
:100D000099F58181682F70E0611B71093FC08430C3
:100D100021F0923031F48230B9F18181882389F158
:100D20002DC011961C9111978230F1F08181181716
:100D3000D9F412962D913C91139782819381821759
:100D4000930794F028173907BCF014968D919D9164
:100D50000D90BC91A02D24813581468157812817A3
:100D600039074A075B0718F4112341F00AC08217BC
:100D70009307A407B50740F4112319F061E070E070
:100D800005C06FEF7FEF02C060E070E0CB011F9104
:100D90000895DF93CF930F92CDB7DEB78983AAE38F
:100DA000B0E0EAE3F0E08081482F8981282F30E02D
:100DB00081E090E0022E02C0880F991F0A94E2F7AA
:100DC000809584238C93898187708983A7E2B0E022
:100DD000E7E2F0E08081807E8C93A7E2B0E0E7E27A
:100DE000F0E090818981892B8C93A6E2B0E0E6E265
:100DF000F0E08081887F8C93A6E2B0E0E6E2F0E04C
:100E0000808186608C93A7E2B0E0E7E2F0E0808129
:100E10008F778C93A7E2B0E0E7E2F0E08081806416
:100E20008C93A7E2B0E0E7E2F0E080818F7D8C93C5
:100E3000A6E2B0E0E6E2F0E0808180688C930F905B
:100E4000CF91DF910895DF93CF9300D0CDB7DEB778
:100E5000A6E2B0E0E6E2F0E0808180648C93E6E216
:100E6000F0E08081882F90E0807190709595879553
:100E7000959587959595879595958795009779F39D
:100E8000A6E2B0E0E6E2F0E0808180618C93E4E2EB
:100E9000F0E08081882F90E09A838983E5E2F0E09A
:100EA0008081882F90E0982F88279C0189819A81E2
:100EB000822B932B9A83898389819A810F900F903B
:100EC000CF91DF910895DF93CF9300D000D00F92A0
:100ED000CDB7DEB789837B836A83AFE5B0E0EFE50A
:100EE000F0E0808180688C938981282F30E03D83F9
:100EF0002C838C819D818130910531F12C813D8144
:100F000022303105B1F18C819D81009709F045C0F7
:100F1000ABE5B0E0EBE5F0E0808180648C93AAE57E
:100F2000B0E0EAE5F0E0808180648C93A1E3B0E07A
:100F3000E1E3F0E080818B7F8C938A819B819093A9
:100F40007B0180937A0129C0ABE5B0E0EBE5F0E0EE
:100F5000808180688C93A1E3B0E0E1E3F0E08081E0
:100F6000877F8C938A819B8190937D0180937C0104
:100F700014C0ABE5B0E0EBE5F0E0808180628C93DB
:100F8000A7E3B0E0E7E3F0E080818B7F8C938A8178
:100F90009B8190937901809378010F900F900F902F
:100FA0000F900F90CF91DF9108951F920F920FB67F
:100FB0000F9211242F933F934F935F936F937F93DF
:100FC0008F939F93AF93BF93EF93FF93DF93CF9351
:100FD000CDB7DEB7E0917A01F0917B010995CF9111
:100FE000DF91FF91EF91BF91AF919F918F917F9191
:100FF0006F915F914F913F912F910F900FBE0F9086
:101000001F9018951F920F920FB60F9211242F93D5
:101010003F934F935F936F937F938F939F93AF9380
:10102000BF93EF93FF93DF93CF93CDB7DEB7E091FC
:101030007C01F0917D010995CF91DF91FF91EF91B6
:10104000BF91AF919F918F917F916F915F914F91E0
:101050003F912F910F900FBE0F901F9018951F92E8
:101060000F920FB60F9211242F933F934F935F93DC
:101070006F937F938F939F93AF93BF93EF93FF9360
:10108000DF93CF93CDB7DEB7E0917801F09179018E
:101090000995CF91DF91FF91EF91BF91AF919F9112
:1010A0008F917F916F915F914F913F912F910F9011
:1010B0000FBE0F901F901895DF93CF9300D000D0F4
:1010C0000F92CDB7DEB789836A834B838981282F3E
:1010D00030E03D832C838C819D818130910509F422
:1010E00043C02C813D81223031052CF48C819D81BF
:1010F000009771F0BCC02C813D812230310509F48C
:101100005FC08C819D818330910509F485C0AFC09B
:101110008B818130A1F4AAE3B0E0EAE3F0E08081C2
:10112000482F8A81282F30E081E090E0022E02C013
:10113000880F991F0A94E2F7842B8C9398C0AAE336
:10114000B0E0EAE3F0E08081482F8A81282F30E088
:1011500081E090E0022E02C0880F991F0A94E2F706
:10116000809584238C9383C08B818130A1F4A7E385
:10117000B0E0E7E3F0E08081482F8A81282F30E05B
:1011800081E090E0022E02C0880F991F0A94E2F7D6
:10119000842B8C936CC0A7E3B0E0E7E3F0E08081A0
:1011A000482F8A81282F30E081E090E0022E02C093
:1011B000880F991F0A94E2F7809584238C9357C077
:1011C0008B818130A1F4A4E3B0E0E4E3F0E080811E
:1011D000482F8A81282F30E081E090E0022E02C063
:1011E000880F991F0A94E2F7842B8C9340C0A4E3E4
:1011F000B0E0E4E3F0E08081482F8A81282F30E0DE
:1012000081E090E0022E02C0880F991F0A94E2F755
:10121000809584238C932BC08B818130A1F4A1E332
:10122000B0E0E1E3F0E08081482F8A81282F30E0B0
:1012300081E090E0022E02C0880F991F0A94E2F725
:10124000842B8C9314C0A1E3B0E0E1E3F0E0808153
:10125000482F8A81282F30E081E090E0022E02C0E2
:10126000880F991F0A94E2F7809584238C930F903E
:101270000F900F900F900F90CF91DF910895DF9313
:10128000CF9300D000D00F92CDB7DEB789836A83A9
:101290004B838981282F30E03D832C838C819D8175
:1012A0008130910509F443C02C813D812230310504
:1012B0002CF48C819D81009771F0BCC02C813D8104
:1012C0002230310509F45FC08C819D818330910506
:1012D00009F485C0AFC08B818130A1F4ABE3B0E0ED
:1012E000EBE3F0E08081482F8A81282F30E081E015
:1012F00090E0022E02C0880F991F0A94E2F7842B17
:101300008C9398C0ABE3B0E0EBE3F0E08081482F32
:101310008A81282F30E081E090E0022E02C0880F01
:10132000991F0A94E2F7809584238C9383C08B8164
:101330008130A1F4A8E3B0E0E8E3F0E08081482F39
:101340008A81282F30E081E090E0022E02C0880FD1
:10135000991F0A94E2F7842B8C936CC0A8E3B0E049
:10136000E8E3F0E08081482F8A81282F30E081E097
:1013700090E0022E02C0880F991F0A94E2F7809530
:1013800084238C9357C08B818130A1F4A5E3B0E016
:10139000E5E3F0E08081482F8A81282F30E081E06A
:1013A00090E0022E02C0880F991F0A94E2F7842B66
:1013B0008C9340C0A5E3B0E0E5E3F0E08081482FE6
:1013C0008A81282F30E081E090E0022E02C0880F51
:1013D000991F0A94E2F7809584238C932BC08B810C
:1013E0008130A1F4A2E3B0E0E2E3F0E08081482F95
:1013F0008A81282F30E081E090E0022E02C0880F21
:10140000991F0A94E2F7842B8C9314C0A2E3B0E0F6
:10141000E2E3F0E08081482F8A81282F30E081E0EC
:1014200090E0022E02C0880F991F0A94E2F780957F
:1014300084238C930F900F900F900F900F90CF916B
:10144000DF910895DF93CF9300D000D00F92CDB7F6
:10145000DEB78A836B838A81282F30E03D832C831B
:101460004C815D8141305105B1F18C819D8182308B
:10147000910534F42C813D812115310571F084C032
:101480004C815D814230510509F443C08C819D81BE
:101490008330910509F45BC077C0E9E3F0E0808117
:1014A000482F50E08B81282F30E081E090E002C08F
:1014B000880F991F2A95E2F79A01282339238B81F7
:1014C000882F90E0A90102C0559547958A95E2F7CB
:1014D000CA01898359C0E6E3F0E08081482F50E0DB
:1014E0008B81282F30E081E090E002C0880F991FA7
:1014F0002A95E2F79A01282339238B81882F90E0DF
:10150000A90102C0559547958A95E2F7CA018983DA
:101510003BC0E3E3F0E08081482F50E08B81282F2F
:1015200030E081E090E002C0880F991F2A95E2F731
:101530009A01282339238B81882F90E0A90102C0CA
:10154000559547958A95E2F7CA0189831DC0E0E366
:10155000F0E08081482F50E08B81282F30E081E03F
:1015600090E002C0880F991F2A95E2F79A0128237C
:1015700039238B81882F90E0A90102C055954795AA
:101580008A95E2F7CA01898389810F900F900F90A5
:101590000F900F90CF91DF910895DF93CF9300D0FC
:1015A00000D0CDB7DEB789836A838981282F30E0E8
:1015B0003C832B838B819C818130910549F12B8168
:1015C0003C81223031052CF48B819C81009761F0A5
:1015D0005AC02B813C812230310571F18B819C8175
:1015E00083309105E9F14FC0ABE3B0E0EBE3F0E00D
:1015F0008081482F8A81282F30E081E090E0022E00
:1016000002C0880F991F0A94E2F784278C933BC08D
:10161000A8E3B0E0E8E3F0E08081482F8A81282F3A
:1016200030E081E090E0022E02C0880F991F0A94FA
:10163000E2F784278C9327C0A5E3B0E0E5E3F0E070
:101640008081482F8A81282F30E081E090E0022EAF
:1016500002C0880F991F0A94E2F784278C9313C065
:10166000A2E3B0E0E2E3F0E08081482F8A81282FF6
:1016700030E081E090E0022E02C0880F991F0A94AA
:10168000E2F784278C930F900F900F900F90CF91DB
:10169000DF910895DF93CF9300D000D0CDB7DEB7B0
:1016A00089836A838981282F30E03C832B838B8157
:1016B0009C818130910509F12B813C8122303105DB
:1016C0002CF48B819C81009761F03AC02B813C8186
:1016D00022303105F1F08B819C818330910529F115
:1016E0002FC08A81813029F4EAE3F0E08FEF808314
:1016F00027C0EAE3F0E0108223C08A81813029F418
:10170000E7E3F0E08FEF80831BC0E7E3F0E01082B7
:1017100017C08A81813029F4E4E3F0E08FEF808301
:101720000FC0E4E3F0E010820BC08A81813029F41D
:10173000E1E3F0E08FEF808303C0E1E3F0E01082AB
:101740000F900F900F900F90CF91DF910895DF933E
:10175000CF9300D000D0CDB7DEB789836A8389816B
:10176000282F30E03C832B838B819C818130910535
:10177000D1F02B813C81223031052CF48B819C816E
:10178000009761F01EC02B813C812230310581F031
:101790008B819C818330910581F013C0EBE3F0E0F5
:1017A0008A8180830EC0E8E3F0E08A81808309C0EB
:1017B000E5E3F0E08A81808304C0E2E3F0E08A811F
:1017C00080830F900F900F900F90CF91DF9108952D
:1017D000DF93CF9300D00F92CDB7DEB78A836B83B0
:1017E000198208C08A8169814B810E945C088981C5
:1017F0008F5F898389818430A8F30F900F900F90B9
:10180000CF91DF910895DF93CF9300D00F92CDB7A2
:10181000DEB78A836B8384E0898308C08A8169810B
:101820004B810E945C0889818F5F89838981883020
:10183000A8F30F900F900F90CF91DF910895DF9351
:10184000CF9300D000D0CDB7DEB789836A838A8179
:101850008F708A838981282F30E03C832B838B8192
:101860009C818130910529F12B813C812230310509
:101870002CF48B819C81009761F04AC02B813C81C4
:101880002230310531F18B819C818330910589F1C2
:101890003FC0ABE3B0E0EBE3F0E08081807F8C936E
:1018A000ABE3B0E0EBE3F0E090818A81892B8C938D
:1018B0002FC0A8E3B0E0E8E3F0E08081807F8C9364
:1018C000A8E3B0E0E8E3F0E090818A81892B8C9373
:1018D0001FC0A5E3B0E0E5E3F0E08081807F8C935A
:1018E000A5E3B0E0E5E3F0E090818A81892B8C9359
:1018F0000FC0A2E3B0E0E2E3F0E08081807F8C9350
:10190000A2E3B0E0E2E3F0E090818A81892B8C933E
:101910000F900F900F900F90CF91DF910895DF936C
:10192000CF9300D000D0CDB7DEB789836A838A8198
:10193000807F8A838981282F30E03C832B838B81B1
:101940009C818130910529F12B813C812230310528
:101950002CF48B819C81009761F04AC02B813C81E3
:101960002230310531F18B819C818330910589F1E1
:101970003FC0ABE3B0E0EBE3F0E080818F708C938D
:10198000ABE3B0E0EBE3F0E090818A81892B8C93AC
:101990002FC0A8E3B0E0E8E3F0E080818F708C9383
:1019A000A8E3B0E0E8E3F0E090818A81892B8C9392
:1019B0001FC0A5E3B0E0E5E3F0E080818F708C9379
:1019C000A5E3B0E0E5E3F0E090818A81892B8C9378
:1019D0000FC0A2E3B0E0E2E3F0E080818F708C936F
:1019E000A2E3B0E0E2E3F0E090818A81892B8C935E
:1019F0000F900F900F900F90CF91DF9108950F935C
:101A00001F93DF93CF93CDB7DEB7C455D0400FB649
:101A1000F894DEBF0FBECDBFFE01EF5AFF4F80E04E
:101A200090E0A0E2B2E480839183A283B3838E012D
:101A3000035B1F4FFE01EF5AFF4F6081718182816E
:101A4000938120E030E04AEF54E40E941F02DC0161
:101A5000CB01F80180839183A283B383FE01E35B12
:101A6000FF4F608171818281938120E030E040E806
:101A70005FE30E947903882344F4FE01E55BFF4F96
:101A800081E090E09183808364C0FE01E35BFF4FBF
:101A9000608171818281938120E03FEF4FE757E4BD
:101AA0000E94190318160CF043C0FE01EF5AFF4FB5
:101AB000608171818281938120E030E040E251E4D5
:101AC0000E941F02DC01CB018E01055B1F4FBC0190
:101AD000CD010E944900DC01CB01F8019183808394
:101AE0001FC0FE01E75BFF4F88EC90E0918380838D
:101AF000FE01E75BFF4F808191810197F1F7FE01C5
:101B0000E75BFF4F91838083DE01A55BBF4FFE0142
:101B1000E55BFF4F80819181019711969C938E9395
:101B2000FE01E55BFF4F808191810097D1F627C0D0
:101B30008E01055B1F4FFE01E35BFF4F60817181EA
:101B4000828193810E944900DC01CB01F8019183DD
:101B50008083DE01A95BBF4FFE01E55BFF4F808103
:101B600091818D939C93FE01E95BFF4F8081918170
:101B70000197F1F7FE01E95BFF4F9183808381E0DC
:101B800064E041E00E945C0881E067E041E00E947F
:101B90005C0881E065E041E00E945C0881E061E072
:101BA0000E94E80B82E00E943A10FE01ED5BFF4FBD
:101BB00080E090E0A0E7B1E480839183A283B383C7
:101BC0008E01015C1F4FFE01ED5BFF4F6081718153
:101BD0008281938120E030E04AEF54E40E941F02AA
:101BE000DC01CB01F80180839183A283B383FE01E2
:101BF000FF96608171818281938120E030E040E82E
:101C00005FE30E94790388232CF481E090E09EAF8B
:101C10008DAF46C0FE01FF96608171818281938104
:101C200020E03FEF4FE757E40E941903181664F5D0
:101C3000FE01ED5BFF4F608171818281938120E025
:101C400030E040E251E40E941F02DC01CB01BC0104
:101C5000CD010E944900DC01CB019EAF8DAF0FC0CA
:101C600088EC90E09CAF8BAF8BAD9CAD0197F1F70A
:101C70009CAF8BAF8DAD9EAD01979EAF8DAF8DADFF
:101C80009EAD009769F716C0FE01FF9660817181D5
:101C9000828193810E944900DC01CB019EAF8DAF10
:101CA0008DAD9EAD9AAF89AF89AD9AAD0197F1F731
:101CB0009AAF89AF88E20E943A1080E090E0A0E8F5
:101CC000BFE38DAB9EABAFABB8AF6DA97EA98FA9BB
:101CD00098AD20E030E04AEF54E40E941F02DC019E
:101CE000CB0189AB9AABABABBCAB69A97AA98BA989
:101CF0009CA920E030E040E85FE30E94790388235C
:101D00002CF481E090E098AB8FA73FC069A97AA935
:101D10008BA99CA920E03FEF4FE757E40E941903ED
:101D200018164CF56DA97EA98FA998AD20E030E07A
:101D300040E251E40E941F02DC01CB01BC01CD0155
:101D40000E944900DC01CB0198AB8FA70FC088EC43
:101D500090E09EA78DA78DA59EA50197F1F79EA760
:101D60008DA78FA598A9019798AB8FA78FA598A944
:101D7000009769F714C069A97AA98BA99CA90E9448
:101D80004900DC01CB0198AB8FA78FA598A99CA730
:101D90008BA78BA59CA50197F1F79CA78BA78EE03D
:101DA0000E943A1080E090E0A0E8BFE38FA398A7DC
:101DB000A9A7BAA76FA178A589A59AA520E030E0C8
:101DC0004AEF54E40E941F02DC01CB018BA39CA3C9
:101DD000ADA3BEA36BA17CA18DA19EA120E030E0AC
:101DE00040E85FE30E94790388232CF481E090E0CF
:101DF0009AA389A33FC06BA17CA18DA19EA120E0E5
:101E00003FEF4FE757E40E94190318164CF56FA1F6
:101E100078A589A59AA520E030E040E251E40E942F
:101E20001F02DC01CB01BC01CD010E944900DC0195
:101E3000CB019AA389A30FC088EC90E098A38F8F61
:101E40008F8D98A10197F1F798A38F8F89A19AA1FF
:101E500001979AA389A389A19AA1009769F714C051
:101E60006BA17CA18DA19EA10E944900DC01CB0148
:101E70009AA389A389A19AA19E8F8D8F8D8D9E8D06
:101E80000197F1F79E8F8D8F81E00E943A1080E0DC
:101E900090E0A0E2B1E4898F9A8FAB8FBC8F698DFF
:101EA0007A8D8B8D9C8D20E030E04AEF54E40E94C7
:101EB0001F02DC01CB018D8B9E8BAF8BB88F6D89A0
:101EC0007E898F89988D20E030E040E85FE30E94B2
:101ED000790388232CF481E090E09C8B8B8B3FC0AE
:101EE0006D897E898F89988D20E03FEF4FE757E419
:101EF0000E94190318164CF5698D7A8D8B8D9C8D77
:101F000020E030E040E251E40E941F02DC01CB01FE
:101F1000BC01CD010E944900DC01CB019C8B8B8B65
:101F20000FC088EC90E09A8B898B89899A890197F8
:101F3000F1F79A8B898B8B899C8901979C8B8B8B72
:101F40008B899C89009769F714C06D897E898F8978
:101F5000988D0E944900DC01CB019C8B8B8B8B8977
:101F60009C89988B8F878F8598890197F1F7988B3B
:101F70008F8786E00E943A1080E090E0A0E8BFE3FF
:101F80008B879C87AD87BE876B857C858D859E857D
:101F900020E030E04AEF54E40E941F02DC01CB0154
:101FA0008F839887A987BA876F81788589859A8575
:101FB00020E030E040E85FE30E94790388232CF4BE
:101FC00081E090E09E838D833FC06F817885898515
:101FD0009A8520E03FEF4FE757E40E941903181657
:101FE0004CF56B857C858D859E8520E030E040E258
:101FF00051E40E941F02DC01CB01BC01CD010E9413
:102000004900DC01CB019E838D830FC088EC90E0FA
:102010009C838B838B819C810197F1F79C838B83BD
:102020008D819E8101979E838D838D819E810097F6
:1020300069F714C06F81788589859A850E94490067
:10204000DC01CB019E838D838D819E819A83898360
:1020500089819A810197F1F79A838983CC5ADF4F5E
:102060000FB6F894DEBF0FBECDBFCF91DF911F91A9
:102070000F910895DF93CF93CDB7DEB72F970FB6AB
:10208000F894DEBF0FBECDBF8F878F85982F9295B6
:102090009F7081E0692F0E941F0C81E064E040E0A6
:1020A0000E943F0981E067E040E00E943F090E94F2
:1020B000E41081E06F850E941F0C81E064E040E045
:1020C0000E943F0981E067E040E00E943F090E94D2
:1020D000E41080E090E0A0E0B0E48B879C87AD87BF
:1020E000BE876B857C858D859E8520E030E04AEF3C
:1020F00054E40E941F02DC01CB018F839887A987DB
:10210000BA876F81788589859A8520E030E040E83C
:102110005FE30E94790388232CF481E090E09E83A2
:102120008D833FC06F81788589859A8520E03FEF58
:102130004FE757E40E94190318164CF56B857C8510
:102140008D859E8520E030E040E251E40E941F0230
:10215000DC01CB01BC01CD010E944900DC01CB01B7
:102160009E838D830FC088EC90E09C838B838B8152
:102170009C810197F1F79C838B838D819E810197D0
:102180009E838D838D819E81009769F714C06F8136
:10219000788589859A850E944900DC01CB019E8360
:1021A0008D838D819E819A83898389819A8101970C
:1021B000F1F79A8389832F960FB6F894DEBF0FBE8E
:1021C000CDBFCF91DF910895DF93CF93CDB7DEB729
:1021D0002E970FB6F894DEBF0FBECDBF81E065E04D
:1021E00041E00E943F0980E090E0A0E0B0E48B87EE
:1021F0009C87AD87BE876B857C858D859E8520E01D
:1022000030E04AEF54E40E941F02DC01CB018F83CF
:102210009887A987BA876F81788589859A8520E014
:1022200030E040E85FE30E94790388232CF481E0EA
:1022300090E09E838D833FC06F81788589859A85E4
:1022400020E03FEF4FE757E40E94190318164CF5C2
:102250006B857C858D859E8520E030E040E251E4F1
:102260000E941F02DC01CB01BC01CD010E9449008C
:10227000DC01CB019E838D830FC088EC90E09C83B2
:102280008B838B819C810197F1F79C838B838D815C
:102290009E8101979E838D838D819E81009769F732
:1022A00014C06F81788589859A850E944900DC0178
:1022B000CB019E838D838D819E819A8389838981C1
:1022C0009A810197F1F79A83898381E065E040E084
:1022D0000E943F092E960FB6F894DEBF0FBECDBF09
:1022E000CF91DF910895DF93CF93CDB7DEB761979C
:1022F0000FB6F894DEBF0FBECDBF888B698B88897F
:10230000882349F08889833030F48989813118F431
:102310008989882319F480E88F870DC088898130E6
:1023200021F4898981588F8706C08889823019F401
:10233000898981548F878F850E943A1080E090E0D0
:10234000A0E8BFE38B879C87AD87BE876B857C85C4
:102350008D859E8520E030E04AEF54E40E941F0204
:10236000DC01CB018F839887A987BA876F81788535
:1023700089859A8520E030E040E85FE30E94790398
:1023800088232CF481E090E09E838D833FC06F8191
:10239000788589859A8520E03FEF4FE757E40E94D2
:1023A000190318164CF56B857C858D859E8520E07C
:1023B00030E040E251E40E941F02DC01CB01BC018D
:1023C000CD010E944900DC01CB019E838D830FC0AB
:1023D00088EC90E09C838B838B819C810197F1F743
:1023E0009C838B838D819E8101979E838D838D81BC
:1023F0009E81009769F714C06F81788589859A85D9
:102400000E944900DC01CB019E838D838D819E81DA
:102410009A83898389819A810197F1F79A838983C5
:1024200061960FB6F894DEBF0FBECDBFCF91DF919E
:102430000895DF93CF93CDB7DEB72E970FB6F894FC
:10244000DEBF0FBECDBF81E00E943A1080E090E079
:10245000A0E2B1E48B879C87AD87BE876B857C85C6
:102460008D859E8520E030E04AEF54E40E941F02F3
:10247000DC01CB018F839887A987BA876F81788524
:1024800089859A8520E030E040E85FE30E94790387
:1024900088232CF481E090E09E838D833FC06F8180
:1024A000788589859A8520E03FEF4FE757E40E94C1
:1024B000190318164CF56B857C858D859E8520E06B
:1024C00030E040E251E40E941F02DC01CB01BC017C
:1024D000CD010E944900DC01CB019E838D830FC09A
:1024E00088EC90E09C838B838B819C810197F1F732
:1024F0009C838B838D819E8101979E838D838D81AB
:102500009E81009769F714C06F81788589859A85C7
:102510000E944900DC01CB019E838D838D819E81C9
:102520009A83898389819A810197F1F79A838983B4
:102530002E960FB6F894DEBF0FBECDBFCF91DF91C0
:102540000895DF93CF93CDB7DEB72F970FB6F894EA
:10255000DEBF0FBECDBF8F878F85982F92959F705E
:1025600081E0692F0E941F0C81E064E041E00E943D
:102570003F0981E067E040E00E943F090E94E410CB
:1025800081E06F850E941F0C81E064E041E00E94C1
:102590003F0981E067E040E00E943F090E94E410AB
:1025A00080E090E0A0E0B0E48B879C87AD87BE8799
:1025B0006B857C858D859E8520E030E04AEF54E474
:1025C0000E941F02DC01CB018F839887A987BA87FD
:1025D0006F81788589859A8520E030E040E85FE367
:1025E0000E94790388232CF481E090E09E838D8300
:1025F0003FC06F81788589859A8520E03FEF4FE75E
:1026000057E40E94190318164CF56B857C858D855F
:102610009E8520E030E040E251E40E941F02DC0190
:10262000CB01BC01CD010E944900DC01CB019E839E
:102630008D830FC088EC90E09C838B838B819C8181
:102640000197F1F79C838B838D819E8101979E83F7
:102650008D838D819E81009769F714C06F81788585
:1026600089859A850E944900DC01CB019E838D8378
:102670008D819E819A83898389819A810197F1F75F
:102680009A8389832F960FB6F894DEBF0FBECDBF15
:10269000CF91DF910895DF93CF9300D0CDB7DEB710
:1026A0009A8389830AC0E981FA8180810E94A112FC
:1026B00089819A8101969A838983E981FA8180814F
:1026C000882389F70F900F90CF91DF910895DF93C2
:1026D000CF9300D000D00F92CDB7DEB76A837B8353
:1026E0008C839D836A817B818C819D810E944900BE
:1026F000DC01CB01282F30E000D000D000D0EDB7B6
:10270000FEB73196CE0101969183808380E690E0FA
:1027100093838283358324830E9484168DB79EB76A
:1027200006960FB6F8949EBF0FBE8DBFCE010196E0
:102730000E944B138EE20E94A1126A817B818C81E0
:102740009D810E944900DC01CB01882F90E0AA27DF
:1027500097FDA095BA2FBC01CD010E94A9039B0152
:10276000AC016A817B818C819D810E94C101DC0169
:10277000CB01BC01CD0120E030E048EC52E40E94E6
:102780001F02DC01CB018A839B83AC83BD836A81FA
:102790007B818C819D810E944900DC01CB01282F27
:1027A00030E000D000D000D0EDB7FEB73196CE01BA
:1027B00001969183808380E690E0938382833583C2
:1027C00024830E9484168DB79EB706960FB6F894A0
:1027D0009EBF0FBE8DBFCE0101960E944B130F907E
:1027E0000F900F900F900F90CF91DF910895DF938E
:1027F000CF9300D0CDB7DEB789836A8389816A81A0
:1028000041E00E945C0889816A8141E00E943F09A1
:102810000F900F90CF91DF910895DF93CF9300D069
:10282000CDB7DEB789836A8389816A8141E00E94DE
:102830005C0889816A8140E00E943F090F900F90F7
:10284000CF91DF910895DF93CF9300D0CDB7DEB75E
:1028500089836A8389816A8141E00E945C08898159
:102860006A810E94CD0A0F900F90CF91DF91089559
:10287000DF93CF930F92CDB7DEB7898389810E9412
:10288000C9060F90CF91DF910895DF93CF9300D0C9
:102890000F92CDB7DEB70E9423079B838A838A817C
:1028A0009B81CC01A0E0B0E0BC01CD010E945B04A3
:1028B000DC01CB01BC01CD0120E030E04AEF5EE35A
:1028C0000E941F02DC01CB01BC01CD010E94490026
:1028D000DC01CB01898389810F900F900F90CF91FC
:1028E000DF910895DF93CF9300D0CDB7DEB7898312
:1028F0006A8389816A8140E00E945C0889816A81DB
:1029000041E00E943F090F900F90CF91DF91089511
:10291000DF93CF93CDB7DEB761970FB6F894DEBFE4
:102920000FBECDBF888B698B80E090E0A8E4B2E455
:102930008B879C87AD87BE876B857C858D859E85C3
:1029400020E030E04AEF54E40E941F02DC01CB019A
:102950008F839887A987BA876F81788589859A85BB
:1029600020E030E040E85FE30E94790388232CF404
:1029700081E090E09E838D833FC06F81788589855B
:102980009A8520E03FEF4FE757E40E94190318169D
:102990004CF56B857C858D859E8520E030E040E29E
:1029A00051E40E941F02DC01CB01BC01CD010E9459
:1029B0004900DC01CB019E838D830FC088EC90E041
:1029C0009C838B838B819C810197F1F79C838B8304
:1029D0008D819E8101979E838D838D819E8100973D
:1029E00069F714C06F81788589859A850E944900AE
:1029F000DC01CB019E838D838D819E819A838983A7
:102A000089819A810197F1F79A83898388896989F5
:102A10000E94220A8F878F8561960FB6F894DEBFD9
:102A20000FBECDBFCF91DF910895DF93CF9300D03C
:102A30000F92CDB7DEB789837B836A838981882F24
:102A400090E02A813B81B9010E9463070F900F90AB
:102A50000F90CF91DF910895DF93CF93CDB7DEB77D
:102A6000809177018A3128F4809177018F5F80937C
:102A70007701CF91DF910895DF93CF93CDB7DEB784
:102A800080917701803128F0809177018150809387
:102A90007701CF91DF910895DF93CF93CDB7DEB764
:102AA00061970FB6F894DEBF0FBECDBF81E00E94E4
:102AB00038140E94FF0C83E062E00E94721483E0ED
:102AC00063E00E9472142CE235E180E0B9010E94BB
:102AD00015152CE335E181E0B9010E9415150E941E
:102AE0004514898B81E061E00E94731183E690E0D8
:102AF0000E944B138989882F90E0A0E0B0E0BC01D0
:102B0000CD010E945B04DC01CB01BC01CD010E9420
:102B1000671382E061E00E94731189E690E00E94F1
:102B20004B1380917701882F90E0A0E0B0E0BC01CA
:102B3000CD010E945B04DC01CB01BC01CD010E94F0
:102B4000671380E090E0AAE7B4E48B879C87AD87A9
:102B5000BE876B857C858D859E8520E030E04AEFC1
:102B600054E40E941F02DC01CB018F839887A98760
:102B7000BA876F81788589859A8520E030E040E8C2
:102B80005FE30E94790388232CF481E090E09E8328
:102B90008D833FC06F81788589859A8520E03FEFDE
:102BA0004FE757E40E94190318164CF56B857C8596
:102BB0008D859E8520E030E040E251E40E941F02B6
:102BC000DC01CB01BC01CD010E944900DC01CB013D
:102BD0009E838D830FC088EC90E09C838B838B81D8
:102BE0009C810197F1F79C838B838D819E81019756
:102BF0009E838D838D819E81009769F714C06F81BC
:102C0000788589859A850E944900DC01CB019E83E5
:102C10008D838D819E819A83898389819A81019791
:102C2000F1F79A83898383E060E00E948814888B9F
:102C300083E061E00E9488148F878889882351F49B
:102C4000909177018989981728F483E064E00E94C5
:102C5000F7130CC0909177018989891718F088893A
:102C6000882321F083E064E00E940D148F8588237F
:102C700041F489898F3028F483E065E00E94F713DE
:102C80002ECF8989803120F48F85882309F427CFBE
:102C900083E065E00E940D1422CF2F923F924F9265
:102CA0005F926F927F928F929F92AF92BF92CF92DC
:102CB000DF92EF92FF920F931F93CF93DF93CDB7E5
:102CC000DEB7CA1BDB0B0FB6F894DEBF0FBECDBF5D
:102CD00009942A88398848885F846E847D848C842E
:102CE0009B84AA84B984C884DF80EE80FD800C8137
:102CF0001B81AA81B981CE0FD11D0FB6F894DEBF1A
:102D00000FBECDBFED010895AEE0B0E0EAE8F6E118
:102D10000C945B160D891E8986E08C831A830983C7
:102D20008FEF9FE79E838D839E01275E3F4FCE01ED
:102D300001966F89788DA9010E94A8162F81388588
:102D4000020F131FF80110822E96E4E00C94771600
:102D5000ABE0B0E0EEEAF6E10C944D163C012B013D
:102D60005A01FC0117821682838181FD03C06FEF37
:102D70007FEFC6C19AE0892E1E010894211C311CE8
:102D8000F3012381F20123FD859123FF81912F011E
:102D9000882309F4B2C1853239F423FD859123FFDC
:102DA00081912F01853229F490E0B3010E949B1894
:102DB000E7CF982FFF24EE249924FFE1FF15D0F0F0
:102DC0009B3269F09C3228F4903259F0933291F49E
:102DD0000EC09D3249F0903369F441E024C052E0C6
:102DE000F52A84E0F82A28C098E0F92A25C0E0E115
:102DF000FE2A22C0F7FC29C0892F80538A3070F444
:102E0000F6FE05C0989C902C1124980E15C0E89CE5
:102E1000E02C1124E80EF0E2FF2A0EC09E3229F4C5
:102E2000F6FC6BC140E4F42A07C09C3619F450E864
:102E3000F52A02C0983649F4F20123FD959123FF4B
:102E400091912F01992309F0B8CF892F85548330B0
:102E500018F08052833038F444E050E0A40EB51EE0
:102E60005FE359830FC0933631F0933779F0933590
:102E700009F056C020C0F5018081898342E050E00E
:102E8000A40EB51E610101E010E012C0F501C08082
:102E9000D180F6FC03C06FEF7FEF02C0692D70E0B8
:102EA00042E050E0A40EB51EC6010E9490188C01AD
:102EB0005FE7F52214C0F501C080D180F6FC03C0A5
:102EC0006FEF7FEF02C0692D70E042E050E0A40E8A
:102ED000B51EC6010E9485188C0150E8F52AF3FE44
:102EE00007C01AC080E290E0B3010E949B18EA94E8
:102EF0008E2D90E008171907A8F30EC0F601F7FC15
:102F00008591F7FE81916F0190E0B3010E949B18BB
:102F1000E110EA94015010400115110579F7EAC05B
:102F2000943611F0993669F5F7FE08C0F501208155
:102F300031814281538184E090E00AC0F5018081B3
:102F400091819C01442737FD4095542F82E090E009
:102F5000A80EB91E9FE6F92257FF09C0509540956B
:102F6000309521953F4F4F4F5F4FE0E8FE2ACA0151
:102F7000B901A1012AE030E00E94C718D82ED2186A
:102F800040C0953729F41F2D1F7E2AE030E01DC078
:102F90001F2D197F9F3661F0903720F4983509F086
:102FA000ACC00FC0903739F0983709F0A6C004C004
:102FB00028E030E00AC0106114FD146020E130E028
:102FC00004C014FD166020E132E017FF08C0F501CF
:102FD000608171818281938144E050E008C0F501F5
:102FE00080819181BC0180E090E042E050E0A40E3D
:102FF000B51EA1010E94C718D82ED2188FE7F82E4F
:10300000F122F6FE0BC05EEFF522D91438F4F4FE7F
:1030100007C0F2FC05C08FEEF82202C01D2D01C0D2
:10302000192DF4FE0DC0FE01ED0DF11D80818033E0
:1030300019F499EEF92208C01F5FF2FE05C003C023
:103040008F2D867809F01F5F0F2DF3FC14C0F0FE62
:103050000FC01E1510F09D2C0BC09D2C9E0C911ABC
:103060001E2D06C080E290E0B3010E949B181F5FF6
:103070001E15C0F304C01E1510F4E11A01C0EE24A1
:1030800004FF0FC080E390E0B3010E949B1802FF91
:103090001DC001FD03C088E790E00EC088E590E008
:1030A0000BC0802F867891F001FF02C08BE201C037
:1030B00080E2F7FC8DE290E0B3010E949B1806C00D
:1030C00080E390E0B3010E949B189A94D914C0F356
:1030D000DA94F101ED0DF11D808190E0B3010E94C1
:1030E0009B18DD20A9F706C080E290E0B3010E94A2
:1030F0009B18EA94EE20C1F743CEF30166817781F5
:10310000CB012B96E2E10C946916FC01059061500D
:1031100070400110D8F7809590958E0F9F1F0895ED
:10312000FC016150704001900110D8F78095909596
:103130008E0F9F1F08950F931F93CF93DF938C01E2
:10314000EB018B8181FF1BC082FF0DC02E813F816F
:103150008C819D812817390764F4E881F9810193F6
:10316000F983E88306C0E885F985802F0995892BC6
:1031700031F48E819F8101969F838E8302C00FEF71
:103180001FEFC801DF91CF911F910F910895FA01B0
:10319000AA27283051F1203181F1E8946F936E7F96
:1031A0006E5F7F4F8F4F9F4FAF4FB1E03ED0B4E087
:1031B0003CD0670F781F891F9A1FA11D680F791FC8
:1031C0008A1F911DA11D6A0F711D811D911DA11DD9
:1031D00020D009F468943F912AE0269F11243019E9
:1031E000305D3193DEF6CF010895462F4770405D84
:1031F0004193B3E00FD0C9F7F6CF462F4F70405D33
:103200004A3318F0495D31FD4052419302D0A9F78D
:10321000EACFB4E0A6959795879577956795BA9587
:10322000C9F700976105710508959B01AC010A2E4D
:1032300006945795479537952795BA95C9F7620F24
:0E324000731F841F951FA01D0895F894FFCFE3
:10324E0025640054656D703D00636F6E643D000033
:10325E00000000000000000001020203030303044B
:10326E000404040404040405050505050505050507
:10327E0005050505050505060606060606060606E7
:10328E0006060606060606060606060606060606D0
:10329E0006060606060606070707070707070707B7
:1032AE0007070707070707070707070707070707A0
:1032BE000707070707070707070707070707070790
:1032CE000707070707070707070707070707070780
:1032DE000707070707070708080808080808080867
:1032EE000808080808080808080808080808080850
:1032FE000808080808080808080808080808080840
:10330E00080808080808080808080808080808082F
:10331E00080808080808080808080808080808081F
:10332E00080808080808080808080808080808080F
:10333E0008080808080808080808080808080808FF
:10334E0008080808080808080808080808080808EF
:08335E00080808080808081817
:00000001FF
