:100000000C942A000C9434000C9434000C943400AA
:100010000C9434000C9434000C9434000C94340090
:100020000C9434000C9434000C9434000C94340080
:100030000C9434000C9434000C9434000C94340070
:100040000C9434000C9434000C9434000C94340060
:100050000C94340011241FBECFE5D8E0DEBFCDBF25
:100060000E94A7020C94B6020C940000DF93CF9379
:1000700000D000D00F92CDB7DEB789836A834B835F
:100080008981282F30E03D832C838C819D818130B4
:10009000910509F443C02C813D81223031052CF4B7
:1000A0008C819D81009771F0BCC02C813D812230F4
:1000B000310509F45FC08C819D818330910509F47D
:1000C00085C0AFC08B818130A1F4AAE3B0E0EAE340
:1000D000F0E08081482F8A81282F30E081E090E095
:1000E000022E02C0880F991F0A94E2F7842B8C938A
:1000F00098C0AAE3B0E0EAE3F0E08081482F8A816B
:10010000282F30E081E090E0022E02C0880F991F76
:100110000A94E2F7809584238C9383C08B8181308D
:10012000A1F4A7E3B0E0E7E3F0E08081482F8A8103
:10013000282F30E081E090E0022E02C0880F991F46
:100140000A94E2F7842B8C936CC0A7E3B0E0E7E35A
:10015000F0E08081482F8A81282F30E081E090E014
:10016000022E02C0880F991F0A94E2F7809584231B
:100170008C9357C08B818130A1F4A4E3B0E0E4E319
:10018000F0E08081482F8A81282F30E081E090E0E4
:10019000022E02C0880F991F0A94E2F7842B8C93D9
:1001A00040C0A4E3B0E0E4E3F0E08081482F8A811E
:1001B000282F30E081E090E0022E02C0880F991FC6
:1001C0000A94E2F7809584238C932BC08B81813035
:1001D000A1F4A1E3B0E0E1E3F0E08081482F8A815F
:1001E000282F30E081E090E0022E02C0880F991F96
:1001F0000A94E2F7842B8C9314C0A1E3B0E0E1E30E
:10020000F0E08081482F8A81282F30E081E090E063
:10021000022E02C0880F991F0A94E2F7809584236A
:100220008C930F900F900F900F900F90CF91DF91C4
:100230000895DF93CF9300D000D00F92CDB7DEB7F3
:1002400089836A834B838981282F30E03D832C8307
:100250008C819D818130910509F443C02C813D81C1
:10026000223031052CF48C819D81009771F0BCC047
:100270002C813D812230310509F45FC08C819D8144
:100280008330910509F485C0AFC08B818130A1F422
:10029000ABE3B0E0EBE3F0E08081482F8A81282FC8
:1002A00030E081E090E0022E02C0880F991F0A948E
:1002B000E2F7842B8C9398C0ABE3B0E0EBE3F0E083
:1002C0008081482F8A81282F30E081E090E0022E43
:1002D00002C0880F991F0A94E2F7809584238C93BB
:1002E00083C08B818130A1F4A8E3B0E0E8E3F0E0C3
:1002F0008081482F8A81282F30E081E090E0022E13
:1003000002C0880F991F0A94E2F7842B8C936CC06B
:10031000A8E3B0E0E8E3F0E08081482F8A81282F4D
:1003200030E081E090E0022E02C0880F991F0A940D
:10033000E2F7809584238C9357C08B818130A1F4A0
:10034000A5E3B0E0E5E3F0E08081482F8A81282F23
:1003500030E081E090E0022E02C0880F991F0A94DD
:10036000E2F7842B8C9340C0A5E3B0E0E5E3F0E036
:100370008081482F8A81282F30E081E090E0022E92
:1003800002C0880F991F0A94E2F7809584238C930A
:100390002BC08B818823A1F4A2E3B0E0E2E3F0E07C
:1003A0008081482F8A81282F30E081E090E0022E62
:1003B00002C0880F991F0A94E2F7842B8C9314C013
:1003C000A2E3B0E0E2E3F0E08081482F8A81282FA9
:1003D00030E081E090E0022E02C0880F991F0A945D
:1003E000E2F7809584238C930F900F900F900F90DD
:1003F0000F90CF91DF910895DF93CF9300D000D07D
:100400000F92CDB7DEB78A836B838A81282F30E0C5
:100410003D832C834C815D8141305105B1F18C814C
:100420009D818230910534F42C813D812115310567
:1004300071F084C04C815D814230510509F443C0A4
:100440008C819D818330910509F45BC077C0E9E31D
:10045000F0E08081482F50E08B81282F30E081E050
:1004600090E002C0880F991F2A95E2F79A0128238D
:1004700039238B81882F90E0A90102C055954795BB
:100480008A95E2F7CA01898359C0E6E3F0E08081EA
:10049000482F50E08B81282F30E081E090E002C0AF
:1004A000880F991F2A95E2F79A01282339238B8117
:1004B000882F90E0A90102C0559547958A95E2F7EB
:1004C000CA0189833BC0E3E3F0E08081482F50E01C
:1004D0008B81282F30E081E090E002C0880F991FC7
:1004E0002A95E2F79A01282339238B81882F90E0FF
:1004F000A90102C0559547958A95E2F7CA018983FB
:100500001DC0E0E3F0E08081482F50E08B81282F70
:1005100030E081E090E002C0880F991F2A95E2F751
:100520009A01282339238B81882F90E0A90102C0EA
:10053000559547958A95E2F7CA01898389810F907D
:100540000F900F900F900F90CF91DF910895DF9350
:10055000CF93CDB7DEB780E060E041E00E94360087
:1005600080E060E041E00E941901FACFF894FFCFEB
:00000001FF
