:100000000C942A000C943C000C943C000C943C0092
:100010000C943C000C943C000C943C000C943C0070
:100020000C943C000C943C000C943C000C943C0060
:100030000C943C000C943C000C943C000C943C0050
:100040000C943C000C943C000C943C000C943C0040
:100050000C943C0011241FBECFE5D8E0DEBFCDBF1D
:1000600010E0A0E6B0E001C01D92A636B107E1F7AE
:100070000E9499060C94D7060C940000DF93CF934E
:1000800000D000D00F92CDB7DEB789836A834B834F
:100090008981282F30E03D832C838C819D818130A4
:1000A000910509F443C02C813D81223031052CF4A7
:1000B0008C819D81009771F0BCC02C813D812230E4
:1000C000310509F45FC08C819D818330910509F46D
:1000D00085C0AFC08B818130A1F4AAE3B0E0EAE330
:1000E000F0E08081482F8A81282F30E081E090E085
:1000F000022E02C0880F991F0A94E2F7842B8C937A
:1001000098C0AAE3B0E0EAE3F0E08081482F8A815A
:10011000282F30E081E090E0022E02C0880F991F66
:100120000A94E2F7809584238C9383C08B8181307D
:10013000A1F4A7E3B0E0E7E3F0E08081482F8A81F3
:10014000282F30E081E090E0022E02C0880F991F36
:100150000A94E2F7842B8C936CC0A7E3B0E0E7E34A
:10016000F0E08081482F8A81282F30E081E090E004
:10017000022E02C0880F991F0A94E2F7809584230B
:100180008C9357C08B818130A1F4A4E3B0E0E4E309
:10019000F0E08081482F8A81282F30E081E090E0D4
:1001A000022E02C0880F991F0A94E2F7842B8C93C9
:1001B00040C0A4E3B0E0E4E3F0E08081482F8A810E
:1001C000282F30E081E090E0022E02C0880F991FB6
:1001D0000A94E2F7809584238C932BC08B81813025
:1001E000A1F4A1E3B0E0E1E3F0E08081482F8A814F
:1001F000282F30E081E090E0022E02C0880F991F86
:100200000A94E2F7842B8C9314C0A1E3B0E0E1E3FD
:10021000F0E08081482F8A81282F30E081E090E053
:10022000022E02C0880F991F0A94E2F7809584235A
:100230008C930F900F900F900F900F90CF91DF91B4
:100240000895DF93CF9300D000D00F92CDB7DEB7E3
:1002500089836A834B838981282F30E03D832C83F7
:100260008C819D818130910509F443C02C813D81B1
:10027000223031052CF48C819D81009771F0BCC037
:100280002C813D812230310509F45FC08C819D8134
:100290008330910509F485C0AFC08B818130A1F412
:1002A000ABE3B0E0EBE3F0E08081482F8A81282FB8
:1002B00030E081E090E0022E02C0880F991F0A947E
:1002C000E2F7842B8C9398C0ABE3B0E0EBE3F0E073
:1002D0008081482F8A81282F30E081E090E0022E33
:1002E00002C0880F991F0A94E2F7809584238C93AB
:1002F00083C08B818130A1F4A8E3B0E0E8E3F0E0B3
:100300008081482F8A81282F30E081E090E0022E02
:1003100002C0880F991F0A94E2F7842B8C936CC05B
:10032000A8E3B0E0E8E3F0E08081482F8A81282F3D
:1003300030E081E090E0022E02C0880F991F0A94FD
:10034000E2F7809584238C9357C08B818130A1F490
:10035000A5E3B0E0E5E3F0E08081482F8A81282F13
:1003600030E081E090E0022E02C0880F991F0A94CD
:10037000E2F7842B8C9340C0A5E3B0E0E5E3F0E026
:100380008081482F8A81282F30E081E090E0022E82
:1003900002C0880F991F0A94E2F7809584238C93FA
:1003A0002BC08B818130A1F4A2E3B0E0E2E3F0E066
:1003B0008081482F8A81282F30E081E090E0022E52
:1003C00002C0880F991F0A94E2F7842B8C9314C003
:1003D000A2E3B0E0E2E3F0E08081482F8A81282F99
:1003E00030E081E090E0022E02C0880F991F0A944D
:1003F000E2F7809584238C930F900F900F900F90CD
:100400000F90CF91DF910895DF93CF9300D000D06C
:100410000F92CDB7DEB78A836B838A81282F30E0B5
:100420003D832C834C815D8141305105B1F18C813C
:100430009D818230910534F42C813D812115310557
:1004400071F084C04C815D814230510509F443C094
:100450008C819D818330910509F45BC077C0E9E30D
:10046000F0E08081482F50E08B81282F30E081E040
:1004700090E002C0880F991F2A95E2F79A0128237D
:1004800039238B81882F90E0A90102C055954795AB
:100490008A95E2F7CA01898359C0E6E3F0E08081DA
:1004A000482F50E08B81282F30E081E090E002C09F
:1004B000880F991F2A95E2F79A01282339238B8107
:1004C000882F90E0A90102C0559547958A95E2F7DB
:1004D000CA0189833BC0E3E3F0E08081482F50E00C
:1004E0008B81282F30E081E090E002C0880F991FB7
:1004F0002A95E2F79A01282339238B81882F90E0EF
:10050000A90102C0559547958A95E2F7CA018983EA
:100510001DC0E0E3F0E08081482F50E08B81282F60
:1005200030E081E090E002C0880F991F2A95E2F741
:100530009A01282339238B81882F90E0A90102C0DA
:10054000559547958A95E2F7CA01898389810F906D
:100550000F900F900F900F90CF91DF910895DF9340
:10056000CF9300D000D0CDB7DEB789836A8389816D
:10057000282F30E03C832B838B819C818130910537
:1005800049F12B813C81223031052CF48B819C81F7
:10059000009761F05AC02B813C812230310571F106
:1005A0008B819C8183309105E9F14FC0ABE3B0E0D2
:1005B000EBE3F0E08081482F8A81282F30E081E052
:1005C00090E0022E02C0880F991F0A94E2F7842758
:1005D0008C933BC0A8E3B0E0E8E3F0E08081482FD3
:1005E0008A81282F30E081E090E0022E02C0880F3F
:1005F000991F0A94E2F784278C9327C0A5E3B0E003
:10060000E5E3F0E08081482F8A81282F30E081E007
:1006100090E0022E02C0880F991F0A94E2F7842707
:100620008C9313C0A2E3B0E0E2E3F0E08081482FB6
:100630008A81282F30E081E090E0022E02C0880FEE
:10064000991F0A94E2F784278C930F900F900F90D4
:100650000F90CF91DF910895DF93CF9300D000D01A
:10066000CDB7DEB789836A838981282F30E03C8348
:100670002B838B819C818130910509F12B813C81F9
:10068000223031052CF48B819C81009761F03AC0B7
:100690002B813C8122303105F1F08B819C818330AC
:1006A000910529F12FC08A81813029F4EAE3F0E035
:1006B0008FEF808327C0EAE3F0E0108223C08A81B5
:1006C000813029F4E7E3F0E08FEF80831BC0E7E39C
:1006D000F0E0108217C08A81813029F4E4E3F0E071
:1006E0008FEF80830FC0E4E3F0E010820BC08A81BB
:1006F000813029F4E1E3F0E08FEF808303C0E1E390
:10070000F0E010820F900F900F900F90CF91DF913B
:100710000895DF93CF9300D000D0CDB7DEB78983A3
:100720006A838981282F30E03C832B838B819C81D5
:1007300081309105D1F02B813C81223031052CF4A0
:100740008B819C81009761F01EC02B813C812230FF
:10075000310581F08B819C818330910581F013C03C
:10076000EBE3F0E08A8180830EC0E8E3F0E08A8169
:10077000808309C0E5E3F0E08A81808304C0E2E37E
:10078000F0E08A8180830F900F900F900F90CF91AF
:10079000DF910895DF93CF9300D00F92CDB7DEB7EE
:1007A0008A836B83198208C08A8169814B810E9488
:1007B0003E0089818F5F898389818430A8F30F90FF
:1007C0000F900F90CF91DF910895DF93CF9300D0DA
:1007D0000F92CDB7DEB78A836B8384E0898308C02C
:1007E0008A8169814B810E943E0089818F5F898364
:1007F00089818830A8F30F900F900F90CF91DF91EF
:100800000895DF93CF9300D000D0CDB7DEB78983B2
:100810006A838A818F708A838981282F30E03C83A4
:100820002B838B819C818130910529F12B813C8127
:10083000223031052CF48B819C81009761F04AC0F5
:100840002B813C812230310531F18B819C818330B9
:10085000910589F13FC0ABE3B0E0EBE3F0E08081CC
:10086000807F8C93ABE3B0E0EBE3F0E090818A8192
:10087000892B8C932FC0A8E3B0E0E8E3F0E08081FF
:10088000807F8C93A8E3B0E0E8E3F0E090818A8178
:10089000892B8C931FC0A5E3B0E0E5E3F0E08081F5
:1008A000807F8C93A5E3B0E0E5E3F0E090818A815E
:1008B000892B8C930FC0A2E3B0E0E2E3F0E08081EB
:1008C000807F8C93A2E3B0E0E2E3F0E090818A8144
:1008D000892B8C930F900F900F900F90CF91DF91F9
:1008E0000895DF93CF9300D000D0CDB7DEB78983D2
:1008F0006A838A81807F8A838981282F30E03C83C4
:100900002B838B819C818130910529F12B813C8146
:10091000223031052CF48B819C81009761F04AC014
:100920002B813C812230310531F18B819C818330D8
:10093000910589F13FC0ABE3B0E0EBE3F0E08081EB
:100940008F708C93ABE3B0E0EBE3F0E090818A81B1
:10095000892B8C932FC0A8E3B0E0E8E3F0E080811E
:100960008F708C93A8E3B0E0E8E3F0E090818A8197
:10097000892B8C931FC0A5E3B0E0E5E3F0E0808114
:100980008F708C93A5E3B0E0E5E3F0E090818A817D
:10099000892B8C930FC0A2E3B0E0E2E3F0E080810A
:1009A0008F708C93A2E3B0E0E2E3F0E090818A8163
:1009B000892B8C930F900F900F900F90CF91DF9118
:1009C0000895DF93CF9300D000D000D0CDB7DEB72D
:1009D0006B837C838D839E83A0E4B0E0E0E4F0E051
:1009E00080818F778C93A0E4B0E0E0E4F0E0808138
:1009F0008F778C938B819C81AD81BE81880F991FED
:100A0000AA1FBB1F880F991FAA1FBB1F880F991F02
:100A1000AA1FBB1F880F991FAA1FBB1F9C01AD01F6
:100A200080E092E1AAE7B0E0BC01CD010E94B506EA
:100A3000DA01C90101979A838983A0E4B0E0E0E478
:100A4000F0E0808182608C93A0E4B0E0E0E4F0E02C
:100A5000808184608C93AAE2B0E0EAE2F0E08081D9
:100A60008B7F8C93A0E4B0E0E0E4F0E080818F7EA7
:100A70008C93A0E4B0E0E0E4F0E080818F7D8C9383
:100A8000A0E4B0E0E0E4F0E0808188608C93AAE22A
:100A9000B0E0EAE2F0E0808188608C93AAE2B0E006
:100AA000EAE2F0E0808180618C93A0E4B0E0E0E4D1
:100AB000F0E0808180688C93E0E4F0E089819A81A5
:100AC000892F99278083E9E2F0E089818083269647
:100AD0000FB6F894DEBF0FBECDBFCF91DF91089562
:100AE000DF93CF930F92CDB7DEB78983EBE2F0E0CF
:100AF0008081882F90E0807290709595879595956C
:100B00008795959587959595879595958795009760
:100B100069F3ECE2F0E0898180830F90CF91DF915F
:100B20000895DF93CF93CDB7DEB7EBE2F0E080819D
:100B3000881F8827881F882F90E090700097A9F35E
:100B4000ECE2F0E08081CF91DF910895DF93CF93C5
:100B5000CDB7DEB7AAE2B0E0EAE2F0E080818064DF
:100B60008C93CF91DF910895DF93CF93CDB7DEB70C
:100B7000AAE2B0E0EAE2F0E0808180688C93CF9155
:100B8000DF910895DF93CF93CDB7DEB7AAE2B0E04F
:100B9000EAE2F0E0808180628C93CF91DF9108954A
:100BA000DF93CF9300D0CDB7DEB79A838983898155
:100BB0009A8190936300809362000F900F90CF9181
:100BC000DF910895DF93CF9300D0CDB7DEB79A833E
:100BD000898389819A8190936500809364000F9046
:100BE0000F90CF91DF910895DF93CF9300D0CDB7D1
:100BF000DEB79A83898389819A819093610080937B
:100C000060000F900F90CF91DF910895DF93CF9305
:100C100000D0CDB7DEB79A8389830AC0E981FA8113
:100C200080810E94700589819A8101969A838983C7
:100C3000E981FA818081882389F70F900F90CF9105
:100C4000DF910895DF93CF9300D000D000D0CDB7CF
:100C5000DEB76B837C838D839E8319821CC0898160
:100C6000882F90E09C01220F331F220F331F220F89
:100C7000331F8B819C81AD81BE8104C0B695A79541
:100C8000979587952A95D2F78A838A810E94700565
:100C900089818F5F89838981843008F326960FB616
:100CA000F894DEBF0FBECDBFCF91DF910895DF93E3
:100CB000CF9300D000D00F92CDB7DEB7198228C0F5
:100CC0000E949105282F30E08981882F90E0880FBD
:100CD000991F880F991F880F991FA90102C0440FFF
:100CE000551F8A95E2F7CA019C01442737FD4095BC
:100CF000542F8A819B81AC81BD81822B932BA42BA5
:100D0000B52B8A839B83AC83BD8389818F5F898365
:100D100089818430A8F28A819B81AC81BD81BC012C
:100D2000CD010F900F900F900F900F90CF91DF910A
:100D30000895DF93CF930F92CDB7DEB760E875E2E9
:100D400080E090E00E94E10480E060E041E00E94E9
:100D50003E000E949105898389818130D1F780E02E
:100D600060E00E94AF021982F4CFA1E21A2EAA1B02
:100D7000BB1BFD010DC0AA1FBB1FEE1FFF1FA2174B
:100D8000B307E407F50720F0A21BB30BE40BF50B48
:100D9000661F771F881F991F1A9469F760957095D1
:100DA000809590959B01AC01BD01CF010895F89409
:020DB000FFCF73
:00000001FF
